:020000040800F2
:10000000C80700209D010008A5010008A7010008FD
:10001000A9010008AB010008AD01000800000000C4
:10002000000000000000000000000000AF01000818
:10003000B101000800000000B3010008B50100088C
:10004000B7010008B7010008B7010008B7010008B0
:10005000B7010008B7010008B7010008B7010008A0
:10006000B7010008B7010008B7010008B701000890
:10007000B7010008B7010008B7010008B701000880
:10008000B7010008B7010008B7010008B701000870
:10009000B7010008B7010008B7010008931A00086B
:1000A000B7010008B7010008B7010008B701000850
:1000B000F1270008B7010008B7010008B7010008E0
:1000C000B7010008B7010008B7010008B701000830
:1000D000B7010008292D0008352E0008B7010008D7
:1000E000B7010008B7010008B7010008B701000810
:1000F000B7010008B7010008B7010008B701000800
:10010000B7010008B7010008B7010008B7010008EF
:10011000412C0008B7010008B7010008B70100082A
:10012000B7010008B7010008B7010008B7010008CF
:10013000B7010008B7010008B7010008B7010008BF
:10014000B7010008B7010008B7010008B7010008AF
:10015000B7010008B7010008B7010008B70100089F
:10016000B7010008B7010008B7010008B70100088F
:10017000B7010008B7010008B7010008B70100087F
:10018000B7010008B7010008DFF80CD000F046FB0B
:10019000004800474F580008C8070020064880471D
:1001A00006480047FEE7FEE7FEE7FEE7FEE7FEE75C
:1001B000FEE7FEE7FEE7FEE7892700088901000861
:1001C0002DE9F0410024061B254671F1000605DAF1
:1001D00001240027D0EB070067EB0101161E73F125
:1001E000000605DA0027D2EB0702012567EB0303BF
:1001F00000F01DFA86460E4617469C46AC4204D0D7
:100200000025D0EB050E65EB010624B10020D2EBF2
:10021000000760EB030C704631463A466346BDE882
:10022000F081D2B201E000F8012B491EFBD27047E9
:100230000022F6E710B513460A4604461946FFF7B2
:10024000F0FF204610BD30B504460020034600E014
:100250005B1C934203D2E05CCD5C401BF8D030BD08
:100260002DE9FE4F804681EA0300C00F0C46009046
:1002700021F0004123F00045B8EB0200A94105D26E
:100280004046214690461C460B46024623F000405D
:10029000104347D0270DC7F30A00C3F30A51029059
:1002A000401A019040286BDAC3F3130040F4801B1E
:1002B0000098924620B10023D2EB030A63EB0B0BAC
:1002C00001985946C0F14002504600F0E1F9064657
:1002D0000D4650465946019A00F0F9F910EB080016
:1002E0006141002487EA115284EAE7731A4340D03F
:1002F000009A62B3019A012A4FEA075215DC001BEB
:1003000061EB02014FF0004202EA0752CDE90042E0
:10031000001C41F5801132462B4600F030FA03B044
:10032000BDE8F08F40462146F9E7001B61EB020172
:10033000001C41F5801300185B412018A2F500173E
:1003400047EB030140EAD570B6196D4111E06D0825
:100350004FEA360645EAC0754FEA0752001B61EBCB
:100360000201001C41F5801149084FEA30000019D4
:10037000514132462B4603B0BDE8F04F00F0F0B9D2
:100380000098012240000023D0EB020263EBE073EF
:10039000009821464FEAE074B8EB000061EB0401DD
:1003A000E9E783F000435BE781F0004158E72DE97E
:1003B000FE4F81EA030404F0004421F00041009460
:1003C0004FF0000B23F0004350EA01045ED052EAE4
:1003D00003045BD0C3F30A54C1F30A552C44A4F2BE
:1003E000F3340194A0FB0254C1F3130141F48011D2
:1003F000C3F3130343F4801301FB024400FB034ED9
:10040000840A970A44EA815447EA8357A4FB0768A1
:1004100002958D0A05FB07854FEA932C04FB0C54CB
:100420002705029D4FEA065847EA1637B5EB08053F
:100430006EEB070C870E920E47EA811742EA831291
:10044000A7FB0201B6EB0B0164EB00042B0D43EAA2
:100450000C335E1844EB1C50DA465146E7FB0201B0
:10046000C5F313044FEA0B3343EA14534FEA043243
:10047000019C43EA0603A4F10C040294009CCDE91C
:1004800000B400F07CF903B0BDE8F08F0020014615
:10049000F9E72DE9F04D81EA030404F0004B21F067
:1004A000004514464FF0000A23F0004150EA0502CF
:1004B00020D054EA01021DD0C5F30A570246C5F305
:1004C0001303C1F31300C1F30A5640F4801543F43B
:1004D0008013A7EB0608101BD64608F2FD3873EB15
:1004E000050002D308F1010801E092185B41B8F160
:1004F000000F03DA00200146BDE8F08D00204FF424
:100500008011064684460EE0171B73EB050705D3E2
:10051000121B63EB050306434CEA010C49084FEA42
:10052000300092185B4150EA0107EDD152EA030016
:1005300012D082EA040083EA0501084305D0101BAB
:10054000AB4106D20122002306E000224FF0004317
:1005500002E06FF0010253101AEB06004CEB085159
:1005600010EB0A0041EB0B01BDE8F04D00F0F8B8CC
:100570000EB5C10F80EAE0700844CA07002140F2BE
:1005800033438DE80E000A460B4600F0F8F803B03E
:1005900000BD70B5C1F30A5201F000450024C1F35B
:1005A000130140F2FF3341F480119A4201DA002036
:1005B00070BD40F233439A42A2F2334203DC52420E
:1005C00000F075F800E090402C43F1D0404270BD3F
:1005D00000F0004230F000400AD0C10D01F560711A
:1005E000C0F3160042EA0151C208400711437047A8
:1005F00000200146704701F0004330B421F0004173
:1006000050EA010206D00A0DA2F56072C1F313018F
:10061000002A02DC30BC00207047440F44EAC104C9
:10062000C100E01830BC00EBC25000F062B82DE908
:10063000F05F0546002092469B4688460646814666
:1006400040241BE0284641464746224600F02FF84A
:1006500053465A46C01A914110D3114618462246B5
:1006600000F016F82D1A67EB01084F4622460120CC
:10067000002100F00DF817EB00094E41201EA4F1F7
:100680000104DFDC484631462A464346BDE8F09F78
:10069000202A04DB203A00FA02F100207047914042
:1006A000C2F1200320FA03F3194390407047202A37
:1006B00004DB203A21FA02F00021704721FA02F30C
:1006C000D040C2F120029140084319467047202AC9
:1006D00006DBCB17203A41FA02F043EAE07306E06A
:1006E00041FA02F3D040C2F120029140084319467A
:1006F00070470029A8BF7047401C490008BF20F080
:100700000100704710B4B0FA80FC00FA0CF050EA17
:10071000010404BF10BC704749B1CCF1200421FA98
:1007200004F411FA0CF118BF012121430843A3EB93
:100730000C01CB1D4FEA00614FEA102042BF0020A0
:1007400010BC704700EBC35010440029A4BF10BC7C
:100750007047401C490008BF20F0010010BC7047E2
:1007600010B5141E73F1000408DA401C41F10001B9
:1007700092185B411A4301D120F0010010BD2DE910
:10078000F04D92469B4611B1B1FA81F202E0B0FA07
:1007900080F220329046FFF77BFF04460F4640EA86
:1007A0000A0041EA0B0153465A46084313D011464A
:1007B00053EA010019D0C8F140025046FFF777FF15
:1007C00005460E46504659464246FFF761FF08432C
:1007D00005D0012004E020463946BDE8F08D002018
:1007E000054346EAE0762C4337430A986305E40A5A
:1007F000A0EB08000022FD0A44EA47540A3002D563
:1008000000200146E9E7010510196941DDE90845C5
:1008100000196941BDE8F04DA2E70000064C074D04
:1008200006E0E06840F0010394E8070098471034C0
:10083000AC42F6D3FFF7ACFC007A0008207A00083F
:100840002DE9F04D00231A461B1A8A4103DB0020D4
:100850000146BDE8F08DC1F30A52C1F3130141F422
:1008600080154FF0000BD10702D100186D41521EC8
:100870000027044640F2FF11384601EB620A3E466B
:100880008046024600204FF48011FFF710FFC21986
:100890007141BB1846EB0100B4EB030C75EB000C87
:1008A00004D3E41A65EB000517460E46241908F137
:1008B00001006D4180463428E3DDF91946EB06005E
:1008C000091BA84103D24FF0FF32134601E000227A
:1008D00013461BEB070046EB0A51BDE8F04DFFF74E
:1008E0003FBF70B58C1810F8015B15F0070301D1FC
:1008F00010F8013B2A1106D110F8012B03E010F883
:10090000016B01F8016B5B1EF9D12B0705D40023A5
:10091000521E0DD401F8013BFAE710F8013BCB1A47
:10092000921C03E013F8015B01F8015B521EF9D53C
:10093000A142D8D3002070BD70B52DED048B0446C4
:100940000D460026002004E0215C3144CEB2411C5B
:10095000C8B2691E8142F7DC601910F8010CB04280
:1009600002D0BDEC048B70BD2078AA2802D160783B
:10097000AF2800D0F5E7A078022805D1207901281A
:1009800002D1D14908724872A07810287ED121790D
:10099000090209B2627941EA0200FFF7E9FD41EC80
:1009A000190B9FEDCA0B53EC102BFFF700FD41EC28
:1009B000180BFFF720FEC7490860A179090209B2A8
:1009C000E27941EA0200FFF7D3FD41EC190B9FEDFC
:1009D000BF0B53EC102BFFF7EAFC41EC180BFFF7B1
:1009E0000AFEBD490860217A090209B2627A41EA29
:1009F0000200FFF7BDFD41EC190B9FEDB40B53EC6A
:100A0000102BFFF7D4FC41EC180BFFF7F4FDB349B2
:100A10000860A17A090209B2E27A41EA0200FFF70E
:100A2000A7FD41EC190B9FEDA90B53EC102BFFF721
:100A3000BEFC41EC180BFFF7DEFDA9490860217BE5
:100A4000090209B2627B41EA0200FFF791FD41EC25
:100A5000190B9FED9E0B53EC102BFFF7A8FC41ECFC
:100A6000180BFFF7C8FD9F490860A17B090209B276
:100A7000E27B41EA0200FFF77BFD41EC190B9FEDA1
:100A8000930B53EC102BFFF792FC00E04BE041EC92
:100A9000180BFFF7B0FD94490860217C090209B2E8
:100AA000627C41EA0200FFF763FD41EC190B9FED08
:100AB000870B53EC102BFFF77AFC41EC180BFFF778
:100AC0009AFD8A490860A17C090209B2E27C41EAE8
:100AD0000200FFF74DFD41EC190B9FED7C0B53EC31
:100AE000102BFFF764FC41EC180BFFF784FD8049E5
:100AF0000860217D090209B2627D41EA0200FFF728
:100B000037FD41EC190B9FED710B53EC102BFFF7E8
:100B10004EFC41EC180BFFF76EFD76490860A0789B
:100B2000314600F06FF9A07811287CD121790902B3
:100B300009B2627941EA0200FFF71AFD41EC190B94
:100B40009FED620B53EC102BFFF731FC41EC180BBF
:100B5000FFF751FD68490860A179090209B2E279FD
:100B600041EA0200FFF704FD41EC190B9FED570B22
:100B700053EC102BFFF71BFC41EC180BFFF73BFD70
:100B80005E490860217A090209B2627A41EA0200EC
:100B9000FFF7EEFC41EC190B9FED4C0B53EC102BC7
:100BA000FFF705FC41EC180BFFF725FD54490860E1
:100BB000A17A090209B2E27A41EA0200FFF7D8FC01
:100BC00041EC190B9FED410B53EC102BFFF7EFFBA2
:100BD00041EC180BFFF70FFD4A490860217B090221
:100BE00009B2627B41EA0200FFF7C2FC41EC190B3B
:100BF0009FED360B53EC102BFFF7D9FB41EC180B94
:100C0000FFF7F9FC40490860A17B090209B2E27BC9
:100C100041EA0200FFF7ACFC41EC190B9FED2B0BF6
:100C200053EC102B00E04DE0FFF7C1FB41EC180B3B
:100C3000FFF7E1FC35490860217C090209B2627CBA
:100C400041EA0200FFF794FC41EC190B9FED1F0BEA
:100C500053EC102BFFF7ABFB41EC180BFFF7CBFC71
:100C60002B490860A17C090209B2E27C41EA02003A
:100C7000FFF77EFC41EC190B9FED140B53EC102B8E
:100C8000FFF795FB41EC180BFFF7B5FC2149086015
:100C9000217D090209B2627D41EA0200FFF768FC8A
:100CA00041EC190B9FED090B53EC102BFFF77FFB69
:100CB00041EC180BFFF79FFC17490860A0783146FC
:100CC00000F0A0F800BF4CE630030020FCA9F1D2F0
:100CD0004D62503F74000020780000207C0000200E
:100CE0008000002084000020880000208C0000206C
:100CF0009000002094000020EC000020F000002074
:100D0000F4000020F8000020FC000020000100207A
:100D100004010020080100200C01002010B5044649
:100D20003448007838B9AA2C05D10120314908701F
:100D3000314804705DE02F480078012807D1AF2CBE
:100D400005D102202B4908702B48447051E02948F6
:100D50000078022807D1F12C05DA03202549087014
:100D60002548847045E02348007803280CD1322CB4
:100D70000ADA04201F4908701F48C4701F48047015
:100D800000201F49087034E01A480078042819D15F
:100D90001A480078002815DD18480078401E1749C9
:100DA00008701748007816490978491C144A1170D0
:100DB000001D11490C5411480078D0B905200D4987
:100DC000087016E00B48007805280FD1002009496B
:100DD00008700B480078001D07490C54084800783B
:100DE000401DC1B20448FFF7A7FD02E00020014901
:100DF000087010BD4E010020710300204C0100203E
:100E00004D01002070B504460D46AA200D4908701A
:100E10004870EF2088700220C87008460471457140
:100E20000026002005E00749095C3144CEB2411C90
:100E3000C8B20628F7DB03488671072100F004F8E2
:100E400070BD00003F03002070B504460D462946E2
:100E5000204602F043F970BD7FB50024AA22214646
:100E6000641C474842542146641C425406222146D1
:100E7000641C425400222146641C42549DF8012007
:100E80002146641C42549DF800202146641C4254B3
:100E90009DF805202146641C42549DF804202046FC
:100EA000611CCCB236490A549DF809202046611CC9
:100EB000CCB233490A549DF808202046611CCCB2BC
:100EC0002F490A549DF80D202046611CCCB22C49B4
:100ED0000A549DF80C202146601CC4B22848425494
:100EE0009DF821202046611CCCB225490A549DF86A
:100EF00020202046611CCCB221490A549DF82520AF
:100F00002046611CCCB21E490A549DF8242020467C
:100F1000611CCCB21A490A549DF829202046611C54
:100F2000CCB217490A549DF828202046611CCCB247
:100F300013490A549DF82D202046611CCCB210495B
:100F40000A549DF82C202046611CCCB20C490A544E
:100F5000201FC8700025002005E00949095C2944CC
:100F6000CDB2411CC8B2A042F7DB2046611CCCB216
:100F700003490D5421460248FFF766FF7FBD00007C
:100F80003F03002070B52DED0A8B82B00546B0EE10
:100F9000408AF0EE608AB0EE419AF0EE619AB0EECF
:100FA00042AAF0EE62AAB0EE43BAF0EE63BAB0EE37
:100FB00044CA0024AA222146641C7F484254214688
:100FC000641C425405F10F00C2B22146641C7A48E9
:100FD000425400222146641C42549FED780A28EEB8
:100FE000000ABDEEC00A10EE100A00B201909DF892
:100FF00005202146641C704842549DF80420214677
:10100000641C42549FED6D0A28EE800ABDEEC00AB2
:1010100010EE100A00B201909DF805202146641CD4
:10102000654842549DF804202046611CCCB26249B8
:101030000A549FED620A29EE000ABDEEC00A10EEC6
:10104000100A00B201909DF805202046611CCCB228
:1010500059490A549DF804202046611CCCB25649D7
:101060000A549FED560A29EE800ABDEEC00A10EE22
:10107000100A00B201909DF805202046611CCCB2F8
:101080004D490A549DF804202046611CCCB24A49BF
:101090000A549FED4A0A2AEE000ABDEEC00A10EE7D
:1010A000100A00B201909DF805202046611CCCB2C8
:1010B00041490A549DF804202046611CCCB23E49A7
:1010C0000A549FED3E0A2AEE800ABDEEC00A10EED9
:1010D000100A00B201909DF805202046611CCCB298
:1010E00035490A549DF804202046611CCCB232498F
:1010F0000A549FED320A2BEE000ABDEEC00A10EE34
:10110000100A00B201909DF805202046611CCCB267
:1011100029490A549DF804202046611CCCB2264976
:101120000A549FED260A2BEE800ABDEEC00A10EE8F
:10113000100A00B201909DF805202046611CCCB237
:101140001D490A549DF804202046611CCCB21A495E
:101150000A549FED1A0A2CEE000ABDEEC00A10EEEA
:10116000100A00B201909DF805202046611CCCB207
:1011700011490A549DF804202046611CCCB20E4946
:101180000A54201FC8700026002005E00A49095CA7
:101190003144CEB2411CC8B2A042F7DB2046611CEC
:1011A000CCB205490E5421460348FFF74DFE02B06C
:1011B000BDEC0A8B70BD00003F03002000007A44A4
:1011C0002DE9F0412DED048B82B0B0EE408AF0EEB7
:1011D000608AB0EE419A05460E46174600240095F7
:1011E000AA222146641C4A4842542146641C4254A7
:1011F00001222146641C425400222146641C4254B0
:101200009FED440A28EE000ABDEEC00A10EE100A57
:1012100000B201909DF805202146641C3C484254D0
:101220009DF804202146641C42549FED3A0A28EEA2
:10123000800ABDEEC00A10EE100A00B201909DF8BF
:1012400005202146641C324842549DF80420204663
:10125000611CCCB22E490A549FED2E0A29EE000AD9
:10126000BDEEC00A10EE100A00B201909DF80520F4
:101270002046611CCCB226490A549DF80420204621
:10128000611CCCB222490A549DF803202046611CFF
:10129000CCB21F490A549DF802202046611CCCB2F2
:1012A0001B490A549DF801202046611CCCB2184904
:1012B0000A549DF800202146601CC4B214484254D0
:1012C0002046611CCCB212490E542046611CCCB29F
:1012D0000F490F54201FC8704FF00008002006E08F
:1012E0000B49095C414401F0FF08411CC8B2A0420F
:1012F000F6DB2046611CCCB2054901F8008021468E
:101300000348FFF7A1FD02B0BDEC048BBDE8F081FE
:101310003F0300200000C8429C48D0ED000A9C48D2
:10132000B0F9000000EE100AB8EEC00A30EEC00AB4
:10133000984880ED000A90ED000ADFED970AB4EEC0
:10134000E00AF1EE10FA08DA90ED000ADFED930AF8
:10135000B4EEE00AF1EE10FA03D8002090490870CC
:101360000DE001208E4908708E4890ED000A8948F2
:10137000D0ED000A30EE200A8A4880ED000A894844
:1013800090ED000ADFED880AB4EEE00AF1EE10FA03
:1013900003DD9FED850A80ED000A824890ED000A8A
:1013A000DFED820AB4EEE00AF1EE10FA03D29FED0F
:1013B0007F0A80ED000A7548D0ED000A7448B0F944
:1013C000000000EE100AB8EEC00A30EEC00A7848FD
:1013D000D0ED000A20EE200A764880ED000A76481B
:1013E000D0ED000A6E48007800EE100AB8EE400A10
:1013F00020EE800A6B48D0ED000A20EE200A6F48EC
:1014000080ED000A6248B0F9000000EE100AB8EE64
:10141000C00A6B48D0ED000A30EE600A6948D0ED92
:10142000000A20EE200A684880ED000A6748D0EDE7
:10143000000A6748B0F9000000EE100AB8EEC00AD2
:1014400030EEC00A6348D0ED000A20EE200A624860
:1014500080ED000A6148D0ED000A6148007800EE96
:10146000100AB8EE400A20EE800A5E48D0ED000A6D
:1014700020EE200A5C4880ED000A5548B0F90000D3
:1014800000EE100AB8EEC00A5848D0ED000A30EE5F
:10149000600A5748D0ED000A20EE200A554880ED3A
:1014A000000A5548D0ED000A5448B0F9000000EE9B
:1014B000100AB8EEC00A30EEC00A5148D0ED000A5A
:1014C00020EE200A4F4880ED000A4F48D0ED000A78
:1014D0004E48007800EE100AB8EE400A20EE800A6E
:1014E0004B48D0ED000A20EE200A4A4880ED000A61
:1014F0004248B0F9000000EE100AB8EEC00A4648B3
:10150000D0ED000A30EE600A4448D0ED000A20EE2B
:10151000200A434880ED000A264890ED000A27483B
:10152000D0ED000A30EE200A2748D0ED000A30EE58
:10153000200A3C4880ED000A9FED3B0A3B4880EDC5
:10154000000A9FED390A3A4880ED000A2048B0F9B8
:10155000000000EE100AB8EEC00A194880ED000A3B
:101560000B48B0F9000000EE100AB8EEC00A1F48A0
:1015700080ED000A2148B0F9000000EE100AB8EE34
:10158000C00A254880ED000A704700005C0000207A
:1015900034000020B400002000001643000016C3F1
:1015A00011010020A400002000007A4400007AC449
:1015B000EC000020BC000020F0000020C000002053
:1015C0009C000020F4000020C40000206C000020DB
:1015D00032000020F8000020C8000020FC0000209D
:1015E00012010020A8000020CC000020980000205C
:1015F00000010020D00000207000002036000020F4
:1016000004010020D4000020080100201301002064
:10161000AC000020D8000020A00000200C01002019
:10162000DC000020E000002000000000E4000020BA
:10163000E800002015484088401C00B2134948804B
:1016400008468088401C00B288800846C088401C3C
:1016500000B2C88008460089401C00B208810846D4
:101660004089401C00B2488108468089401C00B275
:10167000888108460078012804D108464078401C3B
:10168000487002E00120014908707047A001002065
:1016900030B50346002403E013F8015B2819C4B2F7
:1016A000081EA1F10105E9B2F6D1944201D1012051
:1016B00030BD0020FCE7000010B51A4800781A4938
:1016C0000978884216D119480078401C17490870DB
:1016D00008460078032823D16420154948800F204C
:1016E0008880C88000F0E8FB0020124908700F498C
:1016F000087015E000200D4908700B480078094972
:10170000087000F00BFC00200A4908700A480078B5
:1017100000F0010020B100F00BFC01200549087029
:1017200010BD00001001002014000020180100204E
:101730001600002028000020150000207FB501249D
:1017400058480068401C5749086042F210718842AE
:1017500002DD01205349086052480068312190FBA6
:10176000F1F201FB120010B901204F4908704D48F9
:1017700000683B2190FBF1F201FB120010B901203F
:101780004949C87048480078A8B100204649087007
:1017900046490968642201FB02F045490A7821465E
:1017A000444B93ED001A444BD3ED000A434B93EDA9
:1017B000000AFFF705FD3C48C07850B300203A49C5
:1017C000C8700090019002903D4D0390B5F906500D
:1017D000643D05EB85054FF6FF7606EA4503384D77
:1017E000B5F90450643D05EB850506EA4502344D24
:1017F000B5F90250643D05EB850506EA4501304D1B
:10180000B5F90050643D05EB850506EA4500FFF794
:1018100023FB2548007A00B3002023490872294899
:1018200090ED004A2848D0ED003A284890ED003A63
:101830002748D0ED002A274890ED002A2648D0ED11
:10184000001A264890ED001A2548D0ED000A2548D8
:1018500090ED000A0120FFF795FB1348407A00B392
:10186000002011494872204890ED004A1F48D0EDF1
:10187000003A1F4890ED003A1E48D0ED002A1E485D
:1018800090ED002A1D48D0ED001A1D4890ED001A79
:101890001C48D0ED000A1C4890ED000A0220FFF71A
:1018A00071FB7FBD48010020300300202000002094
:1018B00028000020880100208401002080010020F1
:1018C0002A00002094000020900000208C000020BE
:1018D0008800002084000020800000207C00002080
:1018E00078000020740000200C0100200801002076
:1018F0000401002000010020FC000020F80000206E
:10190000F4000020F0000020EC00002032480078B5
:1019100000F0010078BB3148007860BB9FED300AD1
:10192000304880ED000A9FED2E0A2F4880ED000A16
:101930002E4890ED000A2E4880ED000A9FED280AFF
:101940002C4880ED000A9FED260A2B4880ED000A06
:101950009FED230A294880ED000A9FED210A2848BF
:1019600080ED000A9FED1E0A264880ED000A6420E3
:10197000254948807047FFE7234840886E2828DCC7
:101980009FED170A174880ED000A9FED150A1648CB
:1019900080ED000A154890ED000A154880ED000A18
:1019A0009FED0F0A134880ED000A9FED0D0A1248C3
:1019B00080ED000A9FED0A0A104880ED000A9FEDB5
:1019C000080A0F4880ED000A9FED050A0D4880EDDA
:1019D000000A00BFCEE7000015000020280000200C
:1019E00000000000680000206C000020880100203A
:1019F00064000020E0000020E4000020E800002057
:101A0000A8000020A4000020160000200A488088BA
:101A1000C0F10F0000EE100AB8EEC00A074880EDD2
:101A2000000A0548C0880F3800EE100AB8EEC00A58
:101A3000034880ED000A7047160000205C0000207B
:101A400060000020704710B5FFF778FE10BD7047AA
:101A500010B5FFF761FCFFF7D9FFFFF757FF00F064
:101A600083FD10BD10B5FFF727FE0448007800F095
:101A7000C3FB0A21024801F03FFB10BD28000020F3
:101A8000AE010020704710B503F0C4FD00F0ACF8C3
:101A900010BD10B5802000F00BF810B1802000F0D0
:101AA00001F810BD0149086070470000143C014076
:101AB00001460020034A12680A400AB1012000E0F2
:101AC00000207047143C0140F0B50A460021002375
:101AD000002400BF3DE0012505FA01F3156805EA81
:101AE00003049C4234D105684F000326BE40B54331
:101AF000056015794E00B5400668354305601579D7
:101B0000012D02D01579022D16D185684F000326CC
:101B1000BE40B543856055794E00B5408668354373
:101B20008560456801268E40B543456045689679D5
:101B30008E40B6B235434560C5684F000326BE40AF
:101B4000B543C560D5794E00B540C6683543C5601C
:101B5000491C1029BFD3F0BDF0B5002300244D0768
:101B6000ED0E02FA05F3CE1000F1200555F82650CF
:101B70004E07F70E0F26BE40B543CF1000F12006EA
:101B800046F82750CE1000F1200555F8265045EABA
:101B90000304CE1000F1200545F82640F0BD018376
:101BA0007047000010B50F48008840F040000D4914
:101BB0000880012002F0D6FA0A480838006800F0D0
:101BC000800008B1002400E001240648801C008841
:101BD00040F040000349891C0880012002F0C2FA4D
:101BE000204610BD1804024010B52DED048B02F004
:101BF0004DFC1F49B1F90000FEF7BAFC41EC190B8E
:101C00009FED1C0B53EC102BFEF7D1FB41EC180B96
:101C1000FEF7BFFC00B2194908801549B1F902006E
:101C2000FEF7A6FC41EC190B9FED120B53EC102BA9
:101C3000FEF7BDFB41EC180BFEF7ABFC00B2104900
:101C400008800B49B1F90400FEF792FC41EC190B36
:101C50009FED080B53EC102BFEF7A9FB41EC180B82
:101C6000FEF797FC00B207490880BDEC048B10BD5D
:101C7000600100201F401F401F409F3F3200002096
:101C800034000020360000201CB50121022000F0A5
:101C9000E7FAC020009001208DF804008DF80600BE
:101CA00002208DF8050069460C48FFF70DFF0B4830
:101CB0001A30008840F0400008491A31088001209D
:101CC00002F050FA05481830008840F080000349BF
:101CD00018310880012002F045FA1CBD00040240C2
:101CE0002DE9F0410646884614461D4600F0E8FC02
:101CF000002141EA4601C8B200F05CF80746012F16
:101D000026D1404600F056F80746012F20D100F0BA
:101D1000D7FC012101EB4601C8B200F04BF80746A1
:101D2000012F15D10DE0012C04D0012000F014F892
:101D3000287003E0002000F00FF828706D1C601E72
:101D4000C4B2002CEFD100F0F3FC0020BDE8F0811C
:101D500000F0EEFC0120F9E770B5064600240025EE
:101D60001FE01348008840F040001149088001201E
:101D700002F0F8F96006040E0D480838006800F01B
:101D8000800008B144F001040948801C008840F03C
:101D900040000749891C0880022002F0E3F9681C12
:101DA000C5B2082DDDDB304600F024FB204670BDB7
:101DB0001804024070B50446002532E0254800882A
:101DC00040F0400023490880012002F0CBF904F0E4
:101DD000800058B11F48801E008840F080001D49D7
:101DE000891E0880012002F0BDF908E0194800882A
:101DF00040F0800017490880012002F0B3F9600626
:101E0000040E012002F0AEF91248801E008840F056
:101E100040001049891E0880022002F0A3F9681CC6
:101E2000C5B2082DCADB0B48008840F040000949C4
:101E30000880012002F096F90648801E008840F0D4
:101E400080000449891E0880012002F08BF9FFF709
:101E5000A9FE70BD1A0402402DE9F04706460F4660
:101E60009046994600F02CFC002141EA4601C8B298
:101E7000FFF7A0FF0546012D1AD13846FFF79AFF5C
:101E80000546012D14D100240CE019F80400FFF7D9
:101E900091FF054625B900F04BFC0120BDE8F08715
:101EA000601CC4B24445F0DB00F042FC0020F5E7C2
:101EB00000F03EFC0120F1E70220034948830420A2
:101EC0000883082008837047001002401CB50121D8
:101ED000102000F0C5F901208DF8040000208DF8D5
:101EE000060001208DF805000F20009069460A4881
:101EF000FFF7EAFD01210848FFF751FE02210648DD
:101F0000FFF74DFE04210448FFF749FE082102486F
:101F1000FFF745FE1CBD00000010024002200349EF
:101F2000088304200883082048837047001002407B
:101F3000022003490883042048830820088370474F
:101F400000100240012002494883022008837047A4
:101F50000010024002200249488301200883704794
:101F60000010024010B523480078012840D1FFF747
:101F70006AFD2048B0F90200022804DB00201D4958
:101F80004880FFF765FD1B48B0F90400052804DB15
:101F9000002018498880FFF776FD1648B0F9060042
:101FA0000A2804DB00201349C880FFF74BFD1148C5
:101FB000B0F90800142804DB00200E490881FFF75F
:101FC00046FD0C48B0F90A00322804DB002009491C
:101FD0004881FFF757FD0748B0F90C00FA2804DBE9
:101FE000002004498881FFF73DFD00200149087069
:101FF00010BD0000A001002010B5C82800DDC820D9
:10200000C82900DDC821C82A00DDC822C82B00DD90
:10201000C823002800DA0020002900DA0021002A65
:1020200000DA0022002B00DA0023034C6363A26372
:10203000E163206410BD00000000014000B58FB0D6
:102040000121084600F02CF90121102000F008F9C8
:102050004FF4D4400D9002208DF8380003208DF805
:10206000390000208DF83A0001208DF83B000DA9C1
:102070003C48FFF729FD012209213A48FFF76CFD92
:1020800001220B213748FFF767FD01220D2135485A
:10209000FFF762FD01220E213248FFF75DFD4FF48C
:1020A000FA600B9040F28F60ADF828000020ADF888
:1020B0003000ADF82A000AA92B4800F04FFD60203F
:1020C000ADF814000120ADF8160064200790002040
:1020D000ADF8200005A9244800F0F4FB08212248AF
:1020E00000F02EFC05A9204800F034FC08211E4811
:1020F00000F082FC05A91C4800F08CFC08211A485D
:1021000000F0D8FC05A9184800F0DEFC08211648AC
:1021100000F016FD4FF40060ADF804004010ADF87B
:1021200006000020ADF80800ADF80A00ADF80C007C
:102130004FF40050ADF80E004000ADF8100001A9BA
:10214000094800F077FB0121074800F067FB0121F7
:10215000054800F082FB0121034800F08AFB0FB024
:1021600000BD0000001002400000014070B50021D9
:1021700000230F22C4781CB3174C246804F4E064D5
:10218000C4F5E064C4F30721C1F10404E3B20A41D9
:1021900044789C40E1B28478144021430C07210E1E
:1021A0000E4C05786155047804F01F050124AC40FD
:1021B00005786D11AD0005F1E025C5F8004109E095
:1021C000047804F01F050124AC40054D0678761113
:1021D00045F8264070BD00000CED00E000E400E092
:1021E00080E100E002490143024A116070470000AB
:1021F0000000FA050CED00E014490978C82903DB5A
:102200000021124A117004E010490978491C0F4A54
:102210001170AA210E4A1170114648700D490978B3
:1022200091700C494978D1700B49097811710A49AC
:102230004978517109490978917108494978D171F2
:10224000024909781172F121517270471E00002075
:10225000AE010020800100208401002088010020C0
:1022600029B1064A12680243044B1A6004E0034A8B
:1022700012688243014B1A607047000030380240F8
:1022800029B1064A12680243044B1A6004E0034A6B
:1022900012688243014B1A607047000040380240C8
:1022A00029B1064A12680243044B1A6004E0034A4B
:1022B00012688243014B1A607047000044380240A4
:1022C000F0B5002100220024022500260223324F0F
:1022D0003F6807F00C0121B1042905D0082937D146
:1022E00005E02E4F076036E02D4F076033E02A4FA0
:1022F0003F1F3F68C7F38056274F3F1F3F6807F0D7
:102300003F036EB1264FB7FBF3F7DFF88CC0ACF19B
:10231000040CDCF800C0CCF3881C07FB0CF40CE0C8
:102320001E4FB7FBF3F7DFF870C0ACF1040CDCF81C
:1023300000C0CCF3881C07FB0CF4174F3F1F3F680D
:10234000C7F301477F1C7D00B4FBF5F7076002E08F
:10235000124F076000BF00BF0F4F3F6807F0F0014A
:102360000909104F7A5C0768D74047600A4F3F68F9
:1023700007F4E051890A0B4F7A5C4768D7408760C1
:10238000054F3F6807F46041490B064F7A5C476888
:10239000D740C760F0BD0000083802400024F400B8
:1023A00000127A0000000020012080F3138800BF93
:1023B00000BF00BF00BF00BF00BFBFF34F8F00BF13
:1023C00000BF00BF0948006800F4E0600849084306
:1023D000001D0649086000BF00BF00BFBFF34F8F5C
:1023E00000BF00BF00BF00E000BFFDE70CED00E054
:1023F0000000FA0510B504461F48008840F0400070
:102400001D490880012001F0ADFE012C09D11A48B8
:10241000008840F0800018490880012001F0A2FEE9
:102420000AE01548801E008840F080001249891E8D
:102430000880012001F096FE0F48801E008840F0C1
:1024400040000D49891E0880022001F08BFE0A48D9
:10245000008840F0400008490880012001F082FE19
:102460000548801E008840F080000349891E0880CE
:10247000012001F077FE10BD1A0402400CB50020C7
:10248000019000903448006840F480303249086080
:1024900000BF3148006800F4003000900198401CF3
:1024A0000190009818B90198B0F5A04FF1D12A48D1
:1024B000006800F4003010B10120009001E000201D
:1024C00000900098012846D123484030006840F031
:1024D00080502149403108602048006840F4404065
:1024E0001E4908601C48083000681B490831086014
:1024F0000846006840F4004008600846006840F460
:10250000A05008601648091F0860081F006840F0C6
:102510008070091F086000BF0F48006800F000705D
:102520000028F9D040F205700E4908600A480830CA
:10253000006820F003000849083108600846006878
:1025400040F00200086000BF03480830006800F057
:102550000C000828F8D10CBD003802400070004083
:1025600008544007003C024070B54E48408800EED9
:10257000100AB8EE400A4C48D0ED000A30EE600A6E
:102580004A48D0ED000A30EE200A4948D0ED000A52
:1025900030EE200ABDEEC00A10EE100A00B2454926
:1025A00008804048408800EE100AB8EE400A3E48D5
:1025B000D0ED000A30EE200A3C48D0ED000A30EEA3
:1025C000200A3B48D0ED000A30EE600ABDEEC00A9A
:1025D00010EE100A00B248803248408800EE100A1F
:1025E000B8EE400A3048D0ED000A30EE200A2F48FD
:1025F000D0ED000A30EE600A2D48D0ED000A30EE32
:10260000200ABDEEC00A10EE100A00B288802548EC
:10261000408800EE100AB8EE400A2348D0ED000AC8
:1026200030EE600A2148D0ED000A30EE600A204802
:10263000D0ED000A30EE600ABDEEC00A10EE100ABE
:1026400000B2C88000241EE01A4830F914001A496C
:10265000B1F90010884206DB1748B0F900001549AF
:1026600021F814000DE0134830F914001349B1F9B2
:102670000010884205DC1148B0F900000D4921F82E
:102680001400601CC4B2042CDEDB0A4DB5F9003026
:10269000B5F90220B5F90410B5F90600FFF7ACFC56
:1026A00070BD000016000020E4000020E0000020C3
:1026B000E80000202A00002014010020160100205C
:1026C00010B500F041FD1948008840F0400017495E
:1026D0000880012001F046FD1448801E008840F06B
:1026E00080001249891E0880012001F03BFD0F483F
:1026F000801E008840F040000C49891E088001209F
:1027000001F030FD0948008840F08000074908804A
:10271000012001F027FD0548008840F040000349F2
:102720000880012001F01EFD10BD00001A040240C7
:1027300010B51448008840F040001249088001207C
:1027400001F010FD0F48008840F080000D4908801E
:10275000012001F007FD0B48801E008840F040007A
:102760000849891E0880012001F0FCFC0548801EF4
:10277000008840F080000349891E0880012001F094
:10278000F1FC10BD1A04024010B51548006840F471
:102790007000134908601348006840F001001149B7
:1027A000086000200F49083108600E4800680E4993
:1027B00008400C4908600D48091D0860081F0068A2
:1027C00020F48020091F0860002006490C310860B1
:1027D000FFF754FE4FF0006001498039086010BDDA
:1027E00088ED00E000380240FFFFF6FE10300024C4
:1027F00010B50121880700F04BF8012809D10648DF
:10280000007800B910BDFEF715FF0121880700F020
:1028100021F800BFF6E700001000002021B1028877
:1028200042F08002028004E002884FF67F731A4073
:10283000028070470A884B881A438B881A43CB88DA
:102840001A430B891A434B891A438B891A43A0F800
:1028500044207047CA430282704721B1028842F087
:102860000102028004E002884FF6FE731A400280E3
:10287000704731B1B0F8442042F40042A0F844203F
:1028800005E0B0F84420C2F30E02A0F844207047DF
:1028900030B50246002000230024158A05EA010312
:1028A000958905EA010413B10CB1012000E0002074
:1028B00030BD1AB183890B43838102E083898B4346
:1028C0008381704770B5002400220023058C4FF6E9
:1028D000FE7635400584028C8388048B4FF68F7515
:1028E0002C40B51E2C400D882C43751E2A408D8926
:1028F0002A434D882A43104DA84202D00F4DA842CA
:1029000013D14FF6F7752A40CD892A434FF6FB7550
:102910002A408D882A434FF6FF652B404FF6FF551E
:102920002B400D8A2B434D8A2B43838004838D6873
:102930004563028470BD00000000014000040140B6
:102940000A460021018B4FF6F773194011430183AA
:102950007047000070B5002400220023058C4FF65C
:10296000EF7635400584028C8388048B48F6FF752A
:102970002C404FF6FF452C400D884FF6FF7606EAB7
:1029800005252C434FF6DF752A408D8906EA05158B
:102990002A434D8806EA05152A43154DA84202D060
:1029A000144DA8421DD14FF67F752A40CD894FF6B0
:1029B000FF7606EA05152A434FF6BF752A408D8833
:1029C00006EA05152A434FF6FF352B404FF2FF75F7
:1029D0002B400D8A06EA85052B434D8A06EA8505BC
:1029E0002B43838004838D688563028470BD00005F
:1029F00000000140000401400A460021018B4FF213
:102A0000FF7319404FF6FF7303EA02231943018352
:102A10007047000070B5002400220023058C4FF69B
:102A2000FF6635400584028C8388848B4FF68F7552
:102A30002C404FF6FC752C400D882C434FF6FF556B
:102A40002A408D894FF6FF7606EA05252A434D88F0
:102A500006EA05252A43154DA84202D0144DA84286
:102A60001DD14FF2FF752A40CD894FF6FF7606EA59
:102A700005252A434FF6FF352A408D8806EA0525AD
:102A80002A434EF6FF752B404DF6FF752B400D8AFD
:102A900006EA05152B434D8A06EA05152B4383806C
:102AA00084838D68C563028470BD0000000001400E
:102AB000000401400A460021818B4FF6F77319404C
:102AC000114381837047000070B500220023002469
:102AD000058C4EF6FF7635400584038C8488828B06
:102AE00048F6FF752A404FF6FF452A400D884FF6FD
:102AF000FF7606EA05252A434DF6FF752B408D89A2
:102B000006EA05352B434D8806EA05352B430A4D69
:102B1000A84202D0094DA84208D14BF6FF752C40BF
:102B20000D8A4FF6FF7606EA85152C438480828352
:102B30008D680564038470BD0000014000040140FD
:102B40000A460021818B4FF2FF7319404FF6FF7345
:102B500003EA0223194381837047000000220288A0
:102B6000184B98420ED0184B98420BD0B0F1804FC2
:102B700008D0164B984205D0154B984202D0154B01
:102B8000984204D14FF68F731A404B881A43124B68
:102B9000984207D0114B984204D04FF6FF431A4099
:102BA0000B891A4302804B68C3620B880385054B6F
:102BB000984202D0044B984201D18B7A03860123BC
:102BC000838270470000014000040140000400407F
:102BD00000080040000C00400010004000140040BD
:102BE0001FB501210846FFF74BFB01218807FFF7BE
:102BF00031FE0520029044F29F10ADF80400002041
:102C0000ADF80C00ADF8060001A94FF08040FFF7C9
:102C1000A5FF01218807FFF720FE4FF4A060FFF712
:102C2000E1FA1C208DF8000001208DF801008DF8DC
:102C300002008DF803006846FFF798FA1FBD0000F8
:102C400010B540F22551094800F048F968B107482D
:102C500000F0FEF9C4B2214605A000F095FA40F25A
:102C60002551024800F012F900BF10BD004C004091
:102C70002578200000B585B000F038F8012110203B
:102C8000FFF70EFB4FF4E13001900020ADF8080093
:102C9000ADF80A00ADF80C00ADF810000C20ADF84E
:102CA0000E0001A9104800F069F9012240F22551F7
:102CB0000D4800F03DF901210B4800F0F6F84FF403
:102CC000A060FFF78FFA25208DF8000001208DF815
:102CD000010000208DF8020001208DF803006846F5
:102CE000FFF744FA05B000BD001001401CB50121FA
:102CF0000846FFF7B5FA4FF4C060009002208DF847
:102D000004008DF8050069460648FEF7DDFE07223F
:102D100009210448FEF720FF07220A210148FEF797
:102D20001BFF1CBD0000024010B540F225510948B0
:102D300000F0D4F860B140F22551064800F0A6F842
:102D4000044800F085F9C4B22046FDF7E7FF00BF54
:102D500010BD00000010014010B504468021074856
:102D600000F0AFF82146054800F077F900BF802158
:102D7000024800F0A6F80028F9D010BD001001406C
:102D800000B585B000F038F801214804FFF778FA63
:102D90004FF4E13001900020ADF80800ADF80A00D2
:102DA000ADF80C00ADF810000C20ADF80E0001A934
:102DB000104800F0E3F8012240F225510D4800F0E0
:102DC000B7F801210B4800F070F84FF4A060FFF74E
:102DD00009FA26208DF8000000208DF801008DF8FA
:102DE000020001208DF803006846FFF7BFF905B027
:102DF00000BD0000004400401CB501210820FFF781
:102E00002FFA6020009002208DF804008DF8050054
:102E100069460748FEF758FE072205210448FEF7D9
:102E20009BFE072206210248FEF796FE1CBD00000D
:102E3000000C024010B540F22551094800F04EF850
:102E400060B1074800F004F9C4B2204602F076FCF5
:102E500040F22551024800F019F800BF10BD0000F3
:102E60000044004010B504468021074800F029F8CE
:102E70002146054800F0F1F800BF8021024800F02B
:102E800020F80028F9D010BD0044004010B5002201
:102E9000002340F66A14A14200D100BF0A120124A7
:102EA0009440A3B2DC43048010BD21B1828942F476
:102EB0000052828104E082894DF6FF731A408281BC
:102EC000704702460020B1F5007F00D100BF138893
:102ED0000B400BB1012000E00020704770B50246A6
:102EE000002400230025002040F66A16B14200D1DC
:102EF00000BFC1F3421501F01F03012606FA03F3D8
:102F0000012D02D19689334006E0022D02D1168AA6
:102F1000334001E0968A33400C12012606FA04F48D
:102F20001688344013B10CB1012000E0002070BDC0
:102F3000F0B50346002400260025002040F66A175D
:102F4000B94200D100BF1846C1F3421401F01F0678
:102F5000012707FA06F5012C01D10C3004E0022C00
:102F600001D1103000E014301AB107682F43076018
:102F700002E00768AF430760F0BD00002DE9FF479E
:102F800005460E460024A14600BFA046B08900B108
:102F900000BF2C8A24F44054F08804432C82AC896E
:102FA00041F20C608443B088318908437189084339
:102FB0000443AC81AC8A24F44074B0890443AC82ED
:102FC0006846FFF77DF92048854202D01F488542B8
:102FD00002D1DDF80C9001E0DDF80890A88900F43A
:102FE000004040B109EBC90000EB0910316849000D
:102FF000B0FBF1F707E009EBC90000EB09103168FD
:103000008900B0FBF1F76420B7FBF0F00401200960
:10301000642101FB1078A88900F4004040B13220FF
:1030200000EBC800B0FBF1F000F00700044308E03B
:10303000322000EB08106421B0FBF1F000F00F002B
:1030400004432C81BDE8FF870010014000140140BB
:1030500001468888C0F308007047C1F308028280E7
:10306000704700001948007800F0010000B31748CD
:1030700080781649C97840EA01201549088013482C
:1030800000791249497940EA0120114948800F48E6
:1030900080790E49C97940EA01200D4988800B48A2
:1030A000007A0A49497A40EA01200949C88008E0C3
:1030B0000648007800F0080018B104484078054937
:1030C00008700248807A0449087070479401002013
:1030D00016000020150000201400002070B50546E1
:1030E0000E46002400BF04E0285DFFF735FE601C9B
:1030F000C4B2B442F8DB70BD70B505460E4600247C
:1031000000BF04E0285DFFF7ADFE601CC4B2B4420E
:10311000F8DB70BD10B5FEF791FFFEF7D7FEFFF7A5
:10312000A9FDFFF72DFEFFF75BFDFEF7ADFD02F0F9
:10313000CDFB012003490870012211468007FFF7EB
:10314000B8FB10BD1000002010B513E00D4800883A
:1031500040F040000B490880032001F003F80948C3
:10316000801E008840F040000649891E0880032028
:1031700000F0F8FF03480A38006800F080000028DB
:10318000E4D010BD1A0402400FB4054B10B503A9DA
:10319000044A029800F0FAFC10BC5DF814FB000031
:1031A000AD5000088C01002003B401984100009844
:1031B00050EAC12018BF04204A0D18BF40F001009A
:1031C00040F2FF72B2EB515F08BF40F002000128ED
:1031D00008BF052002B0704770B5C1482DED020B45
:1031E0002DED0E8B82B0119D25F000449FEDBEDBCE
:1031F0009FEDBFEB84423EDBA4F140511098A1F15A
:103200007F6108430FD0BC48844202DC28D110986B
:1032100030B39DED100B02B0BDEC0E8B02B0BDE8DB
:10322000704000F069BC9DED100B53EC1D2B51EC70
:10323000100BFDF7BCF89DED100B41EC180B53EC97
:103240001E2B51EC100BFDF7B2F853EC182BFDF7C9
:1032500007F841EC100B02B0BDEC0E8B02B070BD54
:10326000012000F08DFC02B0BDEC0E8B02B0BDE879
:10327000704000F055BCA1489FEDA18B844256DA06
:103280009DED100BB4F1795F0ADA51EC100BFFF7EA
:103290008BFF042808BF00F053FC9DED100BDAE70C
:1032A00053EC102B51EC100BFDF781F841EC190B8E
:1032B00095480621B0EE490AF0EE690A784400F01C
:1032C0009FFB53EC192B51EC100BFDF770F841EC00
:1032D0001A0B8E48B0EE490AF0EE690A04217844D0
:1032E00000F08EFB53EC192B51EC100BFDF75FF83F
:1032F00053EC182BFCF7B4FF41EC100B51EC1A0BFC
:1033000053EC102BFDF7C5F8CDE900019DED000B46
:1033100053EC102B9DED100B51EC100BFDF747F803
:103320009DED101B53EC112BFCF79AFFD2E09DEDA5
:10333000100B51EC100B01F0ADFE53EC182BFDF708
:1033400033F89FED730BCDE9000153EC102B9DED8D
:10335000000B51EC100BFDF72AF841EC190B6E48ED
:103360000621B0EE490AF0EE690A784400F048FB05
:1033700053EC192B51EC100BFDF719F841EC1B0B1A
:103380006648B0EE490AF0EE690A0421784400F07C
:1033900037FB53EC192B51EC100BFDF708F853ECED
:1033A000182BFCF75DFF41EC1C0B51EC190B03F0E3
:1033B00029FC41EC180B5A489FED5BABA04222DC84
:1033C00053EC1C2B51EC1B0BFDF763F8CDE900010E
:1033D0009DED000B51EC180B53EC102BFCF7E7FFA5
:1033E00053EC182BFCF73CFF53EC1A2BFCF7DFFFD8
:1033F00053EC1D2BFCF7D5FF53EC1E2BFCF7D4FF31
:1034000041EC100B5FE08DED008B002000909DEDF6
:10341000000B51EC180B53EC102BFCF721FF9DED2A
:10342000000B41EC1E0B53EC102B51EC100BFCF776
:10343000BEFF53EC192BFCF7B7FF53EC1E2BFDF727
:1034400028F841EC190B53EC1C2B51EC1B0BFDF72E
:1034500020F841EC1B0B53EC1A2B51EC190BFCF729
:10346000A6FF53EC1D2BFCF79FFF41EC190B53EC0F
:103470001A2B51EC180BFCF79AFF53EC1B2BFCF7A3
:1034800096FF53EC192BFCF78CFF9DED000B41ECE4
:10349000180B53EC1A2B51EC100BFCF788FF9FED27
:1034A000249B53EC192BFCF77FFF41EC100B51ECE4
:1034B000180B53EC102BFCF774FF53EC192BFCF793
:1034C00073FF41EC100B002D3FF7C5AE51EC100B14
:1034D00081F0004141EC100BBDE60000000000004F
:1034E0000000F03F00000000075C143326A6913C6A
:1034F000182D4454FB21F93F0000F07F0000E03F0D
:10350000000000000000F03F004600000E460000F2
:10351000000000000000E03F524500006045000050
:103520003333EF3F000000000000000000000040C7
:10353000182D4454FB21E93F70B59B482DED020B3B
:103540002DED068B079D25F00044A04218DC97481E
:10355000844202DC0AD1069840B19DED060BBDEC19
:10356000068B02B0BDE8704000F0C6BA002DCCBF9B
:103570009FED8F0B9FED900BBDEC068B02B070BDE5
:103580008F48A04215DD8F48A042D8BF4FF0FF34CE
:1035900058DD9DED060B51EC100BFFF705FE0428DE
:1035A00008BF00F0CDFA9DED060BBDEC068B02B016
:1035B00070BD9DED060B51EC100B01F06BFDCDE9DC
:1035C000060181489FED828BA0423CDD8248A042EB
:1035D0001FDD00249FED82AB9DED060B53EC1A2BF3
:1035E00051EC100BFCF73CFE9DED060B41EC190B6A
:1035F00053EC1A2B51EC100BFCF7D9FE53EC182BA3
:10360000FCF7CFFE53EC192BFCF743FFCDE9060185
:1036100049E09DED060B012453EC182B51EC100BE7
:10362000FCF71EFE9DED060B41EC190B53EC182B1D
:1036300051EC100BFCF7B5FE53EC192BFCF729FFEE
:10364000CDE906012FE06848A0421FDD02249FED6E
:10365000689B9DED060B53EC192B51EC100BFCF7FE
:10366000A6FE53EC182BFCF7FBFD9DED060B41EC81
:10367000180B53EC192B51EC100BFCF792FE53EC8A
:10368000182BFCF706FFCDE906010CE09DED060BBB
:10369000032453EC102B9FED580B51EC100BFCF74F
:1036A000F8FECDE906019DED060B53EC102B51EC15
:1036B000100BFCF77CFE41EC180B53EC182BFCF7BD
:1036C00076FE41EC190B4E480621B0EE490AF0EEA9
:1036D000690A784400F094F953EC182B51EC100B64
:1036E000FCF765FE41EC180B4648B0EE490AF0EED7
:1036F000690A0521784400F083F953EC192B51EC49
:10370000100BFCF754FE41EC100B51EC180B53EC72
:10371000102B002C0EDAFCF7A3FD9DED061B53ECDD
:10372000112BFCF744FE9DED061B53EC112BFCF70F
:103730003BFE35E0FCF794FD9DED061B53EC112B91
:10374000FCF735FE41EC100B2F48784400EBC40029
:1037500090ED001B51EC100B53EC112BFCF721FEEC
:103760009DED061B53EC112BFCF71BFE41EC100BDF
:103770002648784400EBC40090ED001B51EC100B80
:1037800053EC112BFCF710FE41EC100B002DA2BFE7
:10379000BDEC068B02B070BD51EC100B81F0004106
:1037A00041EC100B01E70000000010440000F07F26
:1037B000182D4454FB21F93F182D4454FB21F9BF27
:1037C0000000DC3F0000203E0000F33F000000004E
:1037D000000000000000F03F0000E63F0000000095
:1037E00000000000000000400080034000000000D6
:1037F000000000000000F83F000000000000F0BFE3
:10380000A242000058420000E24100009A4100003C
:1038100070B56B4E2DED040B2DED028B82B0DDF8F3
:103820001CC0DDE905235C422CF000411C4341EA49
:10383000D474049D22F00040B44205D86C422C435D
:1038400040EAD474B4420BD99DED061B9DED040BE8
:1038500002B0BDEC028B04B0BDE8704000F056B978
:10386000ACF14054A4F17F641C430BD0022404EA61
:10387000AC7444EAD27405439FED538B9FED542BF7
:1038800007D015E09DED040B51EC100B00F010FC7F
:1038900042E0002C11BF012C9DED040B02B0BDECE9
:1038A000028B04BF04B070BD022C38D0032C3BD077
:1038B0000B439FED491B9FED4A0B0AD0B14218D133
:1038C000B04209D121F0804120F08040079105905D
:1038D0000FE0002A15DA10E0434B7B44002C08BFB0
:1038E00093ED000B0DD0012C10D0022C17D0032C1F
:1038F0001AD0B0421DD1002A03DAB0EE410AF0EE30
:10390000610A02B0BDEC028B04B070BD93ED000BF8
:1039100051EC100B81F0004141EC100BF1E7B0EEDF
:10392000480AF0EE680AECE7B0EE420AF0EE620AEE
:10393000E7E7401A00153C28C8BF8DED000B19DCE5
:10394000BCF1000FBEBF10F13C0F9FED290B8DEDB8
:10395000000B0FDB9DED060B53EC102B9DED040BC4
:1039600051EC100BFCF795FD01F094FB00F0A0FB6F
:10397000CDE90001002C08BF9DED000BC1D0012C4A
:1039800010D0022C9FED1C0B53EC102B9DED000B67
:1039900051EC100B0DD0FCF704FD53EC182BFCF789
:1039A00000FDB9E7019880F0004001909DED000B0B
:1039B000A7E7FCF7F6FC53EC182BFCF7F5FCABE79C
:1039C0000000F07F00000000182D4454FB21094046
:1039D000182D4454FB2109C0182D4454FB21F9BF74
:1039E000182D4454FB21F93FCA400000000000009C
:1039F0000000000000000000075C143326A6A13C74
:103A000070B504462DED028B4D1E00EBC500B0EEE7
:103A1000408AF0EE608A90ED000B35F0060017D07A
:103A200053EC182B51EC100BFCF7C1FC41EC100BC4
:103A30006D1E04EBC50090ED001B51EC100B53EC18
:103A4000112BFCF70DFC41EC100B35F00600E7D113
:103A5000022D36D0042D1CD0062D1CBFBDEC028BD0
:103A600070BD53EC182B51EC100BFCF7A0FC94ED3F
:103A70000A1B53EC112BFCF7F3FB53EC182BFCF750
:103A800096FC94ED081B53EC112BFCF7E9FB41EC81
:103A9000100B53EC182B51EC100BFCF788FC94ED39
:103AA000061B53EC112BFCF7DBFB53EC182BFCF73C
:103AB0007EFC94ED040B53EC102BFCF7D1FB41EC96
:103AC000100B53EC182B51EC100BFCF770FC94ED21
:103AD000021B53EC112BFCF7C3FB53EC182BFCF728
:103AE00066FC94ED001B53EC112BFCF7B9FBBDEC0D
:103AF000028B41EC100B70BD10B553EC102B51EC48
:103B0000100BFCF7ADFB41EC100B10BD10B553ECE6
:103B1000112B51EC100BFCF7A3FB41EC100B10BD6B
:103B20009FED050B10B553EC102B51EC100BFCF76F
:103B3000B0FC41EC100B10BD0000000000000000C4
:103B40009FED050B10B553EC102B51EC100BFCF74F
:103B50002EFC41EC100B10BD000000000000001016
:103B600002E008C8121F08C1002AFAD17047704746
:103B7000002001E001C1121F002AFBD170470000A4
:103B80000149086070470000900100202DE9FF4FB7
:103B90008DB00F460546002606E025280BD0DDE94E
:103BA0000F1290476D1C761C28780028F5D111B0B3
:103BB0003046BDE8F08F0024A246A1460122EC4920
:103BC00000E0044315F8013F203B02FA03F00842ED
:103BD000F7D128782A2810D06FF02F022878A0F18A
:103BE0003001092914D80AEB8A0102EB410144F0A3
:103BF000020400EB010A6D1CF0E701CF5FEA000A46
:103C000003D544F40054CAF1000A44F002046D1CC8
:103C100028782E2817D115F8010F44F004042A281B
:103C20000ED06FF02F022878A0F1300109290AD8B0
:103C300009EB890102EB410100EB01096D1CF2E780
:103C400057F8049B6D1C28786C280FD006DC4C2894
:103C500017D068280DD06A2814D104E0742810D039
:103C60007A280FD10DE044F400140AE044F48014E3
:103C700001E044F440146978814202D104F58014D3
:103C80006D1C6D1C2A786E2A1FD00CDC632A31D083
:103C900004DC002A8BD0582A11D1A3E0642A68D012
:103CA000692A0CD165E0732A2ED004DC6F2A73D008
:103CB000702A04D19BE0752A6FD0782A6ED0104606
:103CC000DDE90F129047761C50E1C4F30250022840
:103CD00006D0032809D0042801CF09D0066045E1A9
:103CE00001CFF117C0E9006140E101CF06803DE15D
:103CF00006703BE117F8040B8DF8000000208DF8EA
:103D00000100EB46012003E057F804BB4FF0FF3001
:103D100061074FF0000102D40DE008F1010188466F
:103D200049450FDA8045F8DB1BF808100029F4D16B
:103D300008E008F1010188468142FADB1BF808100F
:103D40000029F6D1DDE90F23AAEB080081462146C0
:103D500000F036F9304400EB080604E0DDE90F120C
:103D60001BF8010B9047B8F10108F7D221464846ED
:103D7000F7E00A21C4F302534FF0000B0891022B25
:103D800004D001CFC117032B09D00AE0FF1D27F093
:103D90000707F7E8020108E032E01FE020E000B288
:103DA000C117042B01D140B2C117031E71F10003EA
:103DB00007DA4FF0000CD0EB0C006CEB01012D2367
:103DC00002E0230504D52B238DF82430012303E0E2
:103DD000E30701D02023F7E7984658E00A2110E0D6
:103DE00010210EE010204FF0000B08900CE0102185
:103DF0004FF0000B44F004044FF00809089103E071
:103E000008214FF0000B0891C4F30253022B04D099
:103E100001CF0021032B06D006E0FF1D27F0070786
:103E2000F7E8020103E080B2042B00D1C0B24FF0EA
:103E3000000823072BD5702A07D0DDF820C08CF0AE
:103E4000100C5CEA0B0C05D00EE040238DF82430FA
:103E5000012308E050EA010306D030238DF8243016
:103E60008DF8252002239846DDF820C08CF0080C40
:103E70005CEA0B0C0BD150EA010301D1630706D5B4
:103E800030238DF824304FF00108A9F10109582A98
:103E900004D038A20B9208AA0A920BE03AA2F9E7E2
:103EA0005B46089AFCF7C3FB0B9B9B5C0A9A521E6D
:103EB0000A92137050EA0102F2D10A98ADEB0000A9
:103EC00000F1200B600702D524F4803401E04FF0AC
:103ED0000109D94502DDA9EB0B0000E0002000EB51
:103EE0000B0141440890AAEB010AE00306D4DDE986
:103EF0000F232146504600F063F806444FF00009B6
:103F000008E009A911F80900DDE90F12904709F14D
:103F10000109761CC145F4DBE0030CD5DDE90F2374
:103F20002146504600F04CF8064404E0DDE90F124B
:103F300030209047761C0899481E08900029F5DC2F
:103F400008E00A980A990078491C0A91DDE90F12E5
:103F50009047761CBBF10001ABF1010BF1DC21466F
:103F60005046DDE90F2300F019F806446D1C1BE6EE
:103F7000092801003031323334353637383961623F
:103F80006364656600000000303132333435363703
:103F90003839414243444546000000002DE9F041D4
:103FA000044600251E461746880404D405E0394619
:103FB0002020B0476D1C641EF9D52846BDE8F0816D
:103FC0002DE9F041044600251E469046C80301D560
:103FD000302700E02027880404D505E04146384614
:103FE000B0476D1C641EF9D52846BDE8F08100007D
:103FF000F0B52DED028B83B006460F4600256846CE
:1040000001F066F8002447E056F8241057F8242001
:10401000881A002801DB014600E0414200EE101A38
:10402000B8EEC00ADFED200A80EE208A684600EB79
:10403000840090ED000AB5EEC00AF1EE10FA18D037
:10404000684600EB8400D0ED000A88EE200AF7EE07
:10405000000A70EE608AB0EEE80A1448D0ED090A52
:10406000B4EEE00AF1EE10FA15DD0120A0400543A0
:1040700011E00E4890ED070AB4EEC80AF1EE10FA0E
:1040800006DC90ED080AB4EEC80AF1EE10FA02D28E
:104090000120A0400543641C032CB5DB284603B077
:1040A000BDEC028BF0BD000000008047A06C000852
:1040B00010B541EC100BFFF73FFA51EC100B10BD9F
:1040C0002DE9F0410446E07800F0C006E07800F009
:1040D0003F05607800F0010098B1EF102846E9171D
:1040E00005EB5171C910A5EBC101491C01F0FF0896
:1040F0000B48006820B10A4841460268384690479C
:1041000000BF607800F0080030B10548406818B181
:10411000B011034A516888470020BDE8F0810000D3
:10412000200300200146C1EBC10202EB42024FF422
:104130007A735A434FF0E0235A6100229A610122B8
:104140001A6100BF4FF0E022106900F001021AB1BD
:1041500000F48032002AF5D000224FF0E0235A61AB
:104160009A6170470146C1EBC10202EB42024FF077
:10417000E0235A6100229A6101221A6100BF4FF0C8
:10418000E022106900F001021AB100F48032002A26
:10419000F5D000224FF0E0235A619A61704738B59C
:1041A000044664B120208DF8000028208DF801001D
:1041B00030208DF8020038208DF8030004E0A3229F
:1041C00004216846FCF72DF86A46042140F69E203B
:1041D00002F01EFC02F008F838BD00003EB50446AF
:1041E00002208DF80000CA208DF80100E3208DF830
:1041F000020009208DF803006A460421682002F0BD
:1042000007FCA3208DF8000004F0400048B1C02056
:104210008DF80100C8208DF80200C2208DF803003F
:1042200006E0A3208DF801008DF802008DF8030050
:1042300004F4C07048B1C4208DF80400CC208DF87F
:104240000500C6208DF8060006E0A3208DF80400C6
:104250008DF805008DF80600A3208DF807008DF875
:1042600008008DF809006A460A2140F6A72002F0EE
:10427000CFFB04F0030018B120208DF8000002E00D
:10428000D8208DF800006A46012140F6B62002F0E1
:10429000BFFB04F0200018B1012000F0ADF802E0EF
:1042A000002000F0A9F804F4C07008B304F4807092
:1042B00060B1B2208DF800008B208DF80100B6208F
:1042C0008DF802009B208DF803000BE0B0208DF8E4
:1042D000000080208DF80100B4208DF802009020AD
:1042E0008DF803006A46042140F6A22002F090FBFC
:1042F00004F0010020B3F8208DF800006A46012187
:104300004FF40B6002F084FBFA21072000F0B0FDAF
:10431000072000F077FD012000F097FD642000F0F9
:1043200087FE4FF4FA7000F096FEC821304800F086
:1043300027FD282000F040FD0A2000F050FD08E095
:10434000D8208DF800006A4601214FF40B6002F07E
:104350005FFB04F0020018B1D9208DF8000002E0E4
:10436000D8208DF800006A46012140F23D7002F02D
:104370004FFB04F0040018B1012000F069F802E0DE
:10438000002000F065F804F0100018B10120FFF7DC
:1043900006FF02E00020FFF702FF44F00800154985
:1043A000488101F021FF00201249887304F0400089
:1043B00018B10846807B801D887304F4C07020B15A
:1043C0000C48807B801D0B49887304F0140020B1D9
:1043D0000848807B10300749887304F0030020B13F
:1043E0000448807B001D0349887300203EBD000007
:1043F00009E3CA02200300203EB504466CB10EA1B9
:10440000D1E900208968CDE9002002916A4609219E
:104410004FF4976002F0FCFA3EBD0AA2D2E9001008
:104420009268CDE9010200916A4609214FF4976034
:1044300002F0EEFAF0E70000B8AAB38DB4980D359B
:104440005D000000B8AAAAAAB088C3C5C7000000D2
:1044500038B5044664B1C0208DF80000C2208DF844
:104460000100C4208DF80200C6208DF8030004E08E
:104470008B2204216846FBF7D4FE6A46042140F6ED
:10448000982002F0C5FA01F0AFFE38BD00B52DED61
:10449000088B83B0AE48C07800287DD0AC48407807
:1044A0000028FAD0AB48AC49AC4BAD4ACDE900107E
:1044B000AC49AD4800F07AF920B1012003B0BDEC61
:1044C000088B00BDA348007810B90020A049C8702F
:1044D000A148008800F4807000287DD0A04890EDAD
:1044E000000AB8EEC00ADFEDA10A80EE201AA0484B
:1044F00080ED001A9A4890ED010AB8EEC00ADFED8F
:104500009B0A80EE201A9B4880ED001A944890ED9B
:10451000020AB8EEC00ADFED950A80EE201A96482E
:1045200080ED001A8E4890ED030AB8EEC00ADFED68
:104530008F0A80EE201A914880ED001A8D4890ED88
:10454000000AF8EE000A20EE200A8C48D0ED000A9E
:1045500020EE200A8648D0ED000AB0EE001A60EE88
:10456000810A854890ED001A00EE810A10EE101ABB
:104570000846FCF72DF841EC1A0BB0EE4A0AF0EEB3
:104580006A0AFEF729FEB0EE409AF0EE609A9FEDBF
:104590007C0B53EC102B00E0C1E051EC190BFBF746
:1045A00006FF41EC180BFCF726F8774908607148C4
:1045B00090ED000AF8EE000A20EE200AD0ED000A85
:1045C00020EE200A6C48D0ED000AB0EE001A60EE32
:1045D000810A90ED001A00E09FE000EEC10AF7EEBC
:1045E000000A30EE200A10EE101A0846FBF7F0FF22
:1045F00041EC1A0B604890ED000AF0EE000A20EE44
:10460000200A5E48D0ED000A20EE200A5848D0ED7E
:10461000000AB0EE001A60EE810A564890ED001ACA
:1046200000EE810A10EE101A0846FBF7D1FF41ECAC
:104630001B0BB0EE4A1AF0EE6A1AB0EE4B0AF0EE1F
:104640006B0AFFF7E5F8B0EE409AF0EE609A9FED46
:104650004C0B53EC102B51EC190BFBF7A8FE41EC63
:10466000180BFBF7C8FF49490860414890ED000A64
:1046700020EE000A3F48D0ED000A90ED001A00EE4F
:10468000810A3D48D0ED000A90ED001A00EEC10A03
:104690003A48D0ED000A90ED001A00EEC10A10EE83
:1046A000101A0846FBF794FF41EC1A0B314890EDC5
:1046B000000A3148D0ED000A20EE200A2C48D0ED47
:1046C000000A2E4890ED001A00EE810AF0EE000A72
:1046D00020EE200A10EE101A0846FBF779FF41EC95
:1046E0001B0BB0EE4A1AF0EE6A1AB0EE4B0AF0EE6F
:1046F0006B0AFFF78DF8B0EE409AF0EE609A9FEDEE
:10470000200B53EC102B51EC190BFBF750FE41EC36
:10471000180BFBF770FF1E4908600020CEE60C481E
:10472000C07890B101A802AB0C4A0E4900900E4827
:1047300001F0BEFB08B10120C0E69DF8040010B9ED
:1047400000200349C8700020B8E600BF0120B5E68C
:10475000A40300206E0100206C0100205C010020F9
:10476000B403002066010020600100200000804E9C
:104770007001002074010020780100207C010020DD
:104780006666666666A64C408001002084010020B3
:104790008801002010B5C8234FF48062024940F61A
:1047A000F63001F0B9FA10BDC86C00082DE9F04FE1
:1047B0008DB00746884615469946DDE9166B0024FC
:1047C000002030806B49887B5A4605A901F06CFCBB
:1047D00018B1601E0DB0BDE8F08F6648807A00F019
:1047E0001400002867D09DF8140000069DF81510ED
:1047F00040EA01409DF8161040EA01209DF817108C
:10480000084328609DF8180000069DF8191040EA3A
:1048100001409DF81A1040EA01209DF81B10084342
:1048200068609DF81C0000069DF81D1040EA0140DC
:104830009DF81E1040EA01209DF81F100843A86053
:104840009DF8200000069DF8211040EA01409DF8E7
:10485000221040EA01209DF823100843E86004F18B
:104860001000C4B228680014019068680014029017
:10487000A86800140390E86800140490019840436D
:10488000029901FB0100039901FB0100049901FB5E
:10489000010ABAF1706F02DBBAF1885F05DD01F041
:1048A000A3FC00203080401E94E7B6F9000040F4DD
:1048B0008070308000BF2F48807A00F0400020B325
:1048C00005A9601C085C095D40EA012000B2A8F857
:1048D000000005A9E01C095C05AAA01C105C41EAC7
:1048E000002000B2A8F8020005A9601D095C201D87
:1048F000105C41EA002000B2A8F80400A01DC4B278
:10490000B6F9000040F0080030801A48408900F4F1
:10491000C07008B305A9601C085C095D40EA01206D
:1049200000B2388005A9E01C095C05AAA01C105C37
:1049300041EA002000B2788005A9601D095C201DB5
:10494000105C41EA002000B2B880A01DC4B2B6F9E4
:10495000000040F0700030800648807A00F00300CC
:1049600018B105A90819FFF7ABFB484600F018FC81
:1049700000202FE72003002070B588B0064601A86C
:1049800001F016F8BDF804000021C90341EA5045C2
:10499000C4034448007A00F0030056F82000059054
:1049A0004048007A00F0040010B10598404205909C
:1049B0003C48007AC0F3C10056F820000690394800
:1049C000007A00F0200010B1069840420690354869
:1049D000007AC0F3811056F8200007903148008912
:1049E00000F4807010B10798404207900598C117F5
:1049F000A0FB042301FB043100FB0510810041EA08
:104A0000927005900698C117A0FB042301FB0431A6
:104A100000FB0510810041EA927006900798C117CB
:104A2000A0FB042301FB043100FB0510810041EAD7
:104A3000927007900598000E8DF808000598000CFC
:104A40008DF809000598000A8DF80A000598C0B293
:104A50008DF80B000698000E8DF80C000698000CDF
:104A60008DF80D000698000A8DF80E000698C0B269
:104A70008DF80F000798000E8DF810000798000CB5
:104A80008DF811000798000A8DF812000798C0B23F
:104A90008DF8130002AA0C214FF4257001F0B8FF25
:104AA00008B070BD2003002030B585B0044616A2C2
:104AB00007CA02AB07C3C82C03DD4FF0FF3005B0B7
:104AC00030BDC82090FBF4F0401E85B2280A8DF856
:104AD0000000E8B28DF801006A46022140F216207B
:104AE00001F096FF10B14FF0FF30E8E702AA0C2169
:104AF00040F6C12001F08CFF10B14FF0FF30DEE72F
:104B0000044884810020DAE7FEF2ABC4AAF1DFDFBB
:104B1000BBAFDFDF200300201FB504464848007A02
:104B200000F0030054F8200001904548007A00F09E
:104B3000040010B10198404201904148007AC0F34E
:104B4000C10054F8200002903D48007A00F0200097
:104B500010B10298404202903948007AC0F38110A7
:104B600054F8200003903648008900F4807010B19A
:104B70000398404203903349019880FB0101800F64
:104B800040EA810001902F49029880FB01108200C9
:104B900042EA917002902B49039880FB0110820039
:104BA00042EA917003900198000E8DF80000019880
:104BB000000C8DF801000198000A8DF802000198A0
:104BC000C0B28DF803006A4604214FF4747001F0FE
:104BD0001FFF18B14FF0FF3004B010BD0298000E57
:104BE0008DF800000298000C8DF801000298000A70
:104BF0008DF802000298C0B28DF803006A460421C5
:104C00004FF4757001F004FF10B14FF0FF30E3E78F
:104C10000398000E8DF800000398000C8DF8010039
:104C20000398000A8DF802000398C0B28DF80300C3
:104C30006A4604214FF4767001F0EAFECCE70000EA
:104C40002003002009E3CA0210B586B0044647A03D
:104C50000068039046A00068029046A0006801909A
:104C600045A00068009004F0030003A9085C8DF8DB
:104C7000140003A8C4F3C101405C8DF8150003A81B
:104C8000C4F38111405C8DF8160004F0030002A902
:104C9000085C8DF8100002A8C4F3C101405C8DF8D7
:104CA000110002A8C4F38111405C8DF8120005AA1E
:104CB000032140F2264001F0ABFE18B14FF0FF3067
:104CC00006B010BD04AA032140F22A4001F0A0FE64
:104CD00010B14FF0FF30F3E7019805900098049071
:104CE00004F0040058B19DF8140040F001008DF864
:104CF00014009DF8100040F001008DF8100004F041
:104D0000200058B19DF8150040F001008DF8150005
:104D10009DF8110040F001008DF8110004F480703E
:104D200058B19DF8160040F001008DF816009DF86E
:104D3000120040F001008DF8120005AA03214FF483
:104D4000886001F065FE10B14FF0FF30B8E704AAAB
:104D5000032140F2314001F05BFE10B14FF0FF3013
:104D6000AEE7064804810020AAE700004CCD6C00A5
:104D70000CC92C003656760026466600200300201B
:104D8000F8B505460E464FF47A7095FBF0F000FB3F
:104D900006F4200E8DF80000200C8DF80100200A8A
:104DA0008DF80200E0B28DF803006A4604214FF44A
:104DB000AE7001F02DFEF8BD38B50446052094FB19
:104DC000F0F084B220128DF80000E0B28DF80100FE
:104DD0006A4602214FF4AD7001F01AFE38BD38B5B5
:104DE0000446052094FBF0F084B220128DF80000F8
:104DF000E0B28DF801006A4602214FF4AC7001F078
:104E000007FE38BD38B504460020009004F00100CC
:104E100020B19DF8000040F03000009004F0020046
:104E200020B19DF8000040F00C00009004F0040058
:104E300020B19DF8000040F0030000906A46012177
:104E40004FF4A47001F0E4FD38BD38B50446012CE0
:104E500001DA012402E0042C00DD0424601EC0B24B
:104E600000906A46012140F24F1001F0D1FD38BD9B
:104E7000F0B52DED028B83B006460F4606F0070015
:104E800010B1B7F5C86F05DD4FF0FF3003B0BDECD2
:104E9000028BF0BD00EE107AB8EE400ADFED5B0A3F
:104EA00080EE208A01A800F05DFD9DF80400022834
:104EB00006D0042817D0082828D010284CD138E074
:104EC0009FED530A28EE000ABCEEC00A10EE100A4D
:104ED00084B29FED500A28EE000ABCEEC00A10EE24
:104EE000100A85B23BE09FED4C0A28EE000ABCEEAA
:104EF000C00A10EE100A84B29FED480A28EE000A9C
:104F0000BCEEC00A10EE100A85B228E09FED440AFC
:104F100028EE000ABCEEC00A10EE100A84B29FED23
:104F2000410A28EE000ABCEEC00A10EE100A85B253
:104F300015E09FED3D0A28EE000ABCEEC00A10EE17
:104F4000100A84B29FED390A28EE000ABCEEC00AAE
:104F500010EE100A85B202E04FF0FF3096E700BF76
:104F600020128DF80800E0B28DF8090028128DF8A3
:104F70000A00E8B28DF80B0006F00100A0B102AA09
:104F800002214FF4EA7001F043FD10B14FF0FF3001
:104F90007CE70DF10A0202214FF4927001F038FD16
:104FA00010B14FF0FF3071E706F00200A0B102AA85
:104FB00002214FF4EC7001F02BFD10B14FF0FF30E7
:104FC00064E70DF10A0202214FF4947001F020FD14
:104FD00010B14FF0FF3059E706F00400A0B102AA6B
:104FE00002214FF4EE7001F013FD10B14FF0FF30CD
:104FF0004CE70DF10A0202214FF4967001F008FD12
:1050000010B14FF0FF3041E700203FE70000484378
:105010000000804600004046000000460000C045F9
:105020000000804500004045000000450000C044ED
:1050300038B50446052094FBF0F085B228128DF8AF
:105040000000E8B28DF801006A4602214FF4EF70CB
:1050500001F0DEFC38BD38B50446052094FBF0F0C5
:1050600085B228128DF80000E8B28DF801006A467A
:1050700002214FF4ED7001F0CBFC38BD10B503E018
:1050800010F8013B01F8013B131EA2F10104E2B24A
:10509000F6D110BD82B0CDE9000121F000400190B1
:1050A0009DED000B02B051EC100B704770B504463B
:1050B0000D46E1B20548FDF7D0FF00BF802103484F
:1050C000FDF7FFFE0028F9D0204670BD001001401A
:1050D0007CB505462E494968087801AB04220D21AC
:1050E000FCF7FEFD08B107207CBD9DF80700C0F36A
:1050F00001109DF8041001F0E00140EAE1008DF894
:1051000000009DF80700C0F381009DF8051001F034
:10511000E00140EAE1008DF801009DF8070000F091
:1051200003009DF8061001F0E00140EAE1008DF86F
:105130000200002427E01DF8040030B99FED150A95
:1051400005EB840080ED000A1BE09FED130A05EBE0
:10515000840080ED000A0BE005EB840090ED000A6E
:10516000DFED0E0A20EE200A05EB840080ED000A38
:105170001DF80400401EC0B20DF804000028EBD159
:1051800000BF601CC4B2032CD5DB0020ACE70000DC
:105190001C010020000000007B14AE3E1D5A843F1D
:1051A000704700002DE9F04F87B005460C46914648
:1051B00001208DF8100000208DF81100FE4A1268C1
:1051C000517DFD4A5268107804AB0222FCF744FE80
:1051D00020B14FF0FF3007B0BDE8F08FC820FEF7D8
:1051E000A1FF00208DF81000F34A1268517CF24AAA
:1051F0005268107804AB0122FCF72EFE10B14FF07C
:10520000FF30E8E7EC4A12685179EB4A52681078AF
:1052100004AB0122FCF720FE10B14FF0FF30DAE7BB
:10522000E54A1268517DE44A5268107804AB0122C5
:10523000FCF712FE10B14FF0FF30CCE7DE4A1268E7
:10524000917EDD4A5268107804AB0122FCF704FE1F
:1052500010B14FF0FF30BEE7D74A12681179D64A35
:105260005268107804AB0122FCF7F6FD10B14FF044
:10527000FF30B0E70C208DF81000CF4A126811798A
:10528000CD4A5268107804AB0122FCF7E5FD10B15D
:105290004FF0FF309FE70F20FEF744FFC648806ABB
:1052A000407A8DF81000C44A12689178C24A526858
:1052B000107804AB0122FCF7CFFD10B14FF0FF30A6
:1052C00089E7BD48806A007A8DF81000BA4A1268F2
:1052D0005178B94A5268107804AB0122FCF7BCFD42
:1052E00010B14FF0FF3076E7B9F1000F07D0B248A8
:1052F000806A807A40F0E0008DF8100004E0AE484B
:10530000806A807A8DF81000AB4A12689179AA4AB7
:105310005268107804AB0122FCF79EFD10B14FF0EB
:10532000FF3058E7B9F1000F07D0A348806AC07A70
:1053300040F0E0008DF8100003E0A048C07A8DF83E
:1053400010009D4A1268D1799B4A5268107804ABCC
:105350000122FCF781FD10B14FF0FF303BE7B9F1BE
:10536000000F02D0C820FEF7DDFE40208DF81000AF
:10537000914A12681179904A5268107804AB012260
:10538000FCF76AFD10B14FF0FF3024E778208DF86C
:105390001000894A12685179874A5268107804AB24
:1053A0000122FCF759FD10B14FF0FF3013E783499C
:1053B0008889FEF7B7FE00208DF810007E4A12683B
:1053C00051797D4A5268107804AB0122FCF744FD04
:1053D00010B14FF0FF30FEE6774A1268117B764A33
:1053E0005268107804AB0222FCF77AFC10B14FF03F
:1053F000FF30F0E69DF811009DF8101040EA012BF7
:105400000C209BFBF0F0C6B20020A860686028600A
:10541000A06060602060824665E0674A1268517B48
:10542000654A5268107804AB0C22FCF759FC10B1A5
:105430004FF0FF30CFE69DF811009DF8101040EAC4
:10544000012000B2ADF808009DF813009DF812107D
:1054500040EA012000B2ADF80A009DF815009DF861
:10546000141040EA012000B2ADF80C00BDF908109C
:10547000206808442060BDF90A1060680844606034
:10548000BDF90C10A0680844A0609DF817009DF8B5
:10549000161040EA012000B2ADF800009DF8190096
:1054A0009DF8181040EA012000B2ADF802009DF806
:1054B0001B009DF81A1040EA012000B2ADF804006C
:1054C000BDF90010286808442860BDF9021068681A
:1054D00008446860BDF90410A8680844A8600AF18F
:1054E000010000F0FF0AB24597DB3448D0F800C055
:1054F0002868C117090441EA1041070462460023E5
:105500003846FAF75DFE32460023CDE90201FAF78C
:1055100057FE28602948D0F800C06868C117090400
:1055200041EA10410704624600233846FAF748FE74
:1055300032460023CDE90201FAF742FE68601F48B7
:10554000D0F800C0A868C117090441EA1041070457
:10555000624600233846FAF733FE32460023CDE98F
:105560000201FAF72DFEA8601448D0F804C02168A3
:10557000C817000440EA11480F0462460023384669
:105580004146FAF71DFE32460023CDE90201FAF743
:1055900017FE20600948D0F804C06068C1170904EC
:1055A00041EA10410704624600233846FAF708FE34
:1055B0003246002304E000001C010020A06C00081B
:1055C000CDE90201FAF7FCFD60601148D0F804C093
:1055D000A068C117090441EA10410704624600238C
:1055E0003846FAF7EDFD32460023CDE90201FAF71D
:1055F000E7FDA060A068002804DDA068A0F5803069
:10560000A06003E0A06800F58030A0600020E2E523
:10561000A06C000801200149C8707047A403002055
:10562000F0B52DED048B81B006460F4600253E49AE
:10563000496808786B4603220D21FCF751FB20B125
:10564000072001B0BDEC048BF0BD9DF8000000F018
:105650001F008DF800009DF8010000F01F008DF87C
:1056600001009DF8020000F01F008DF802000024E8
:1056700055E056F8241057F82420881A002801DB3A
:10568000014600E0414200EE101AB8EEC00ADFED1C
:10569000270A80EE208A1DF8040068B3244890EDA4
:1056A000000AB8EE400ADFED230A80EE801AF0EE21
:1056B000418A05E09FED200A28EE800AF0EE408A3C
:1056C0001DF80400401EC0B20DF804000028F1D1FE
:1056D00088EE280AF7EE000A30EE609AB0EEC90AAA
:1056E0001348D0ED060AB4EEE00AF1EE10FA15DD2B
:1056F0000120A040054311E00D4890ED040AB4EEEE
:10570000C80AF1EE10FA06DC90ED050AB4EEC80AFC
:10571000F1EE10FA02D20120A0400543641C032CD4
:10572000A7DB28468DE700001C0100200000804711
:10573000A06C000800B04C4554E3853F70B50446AA
:10574000082C01D0012C02D101201E4908701D48EF
:105750000078B0B31C4801780078401C1A4A1070D9
:105760001A484454104600780C282ADB1748C27A9D
:105770000B21FBF78DFF50B1002013490870FDF796
:1057800071FC00200F490870FCF7DCFB19E01048A1
:1057900000681E2190FBF1F201FB120000EB4000BB
:1057A0000C4901EB80050C2229460848FFF766FCEE
:1057B00007480068401C0649086001F069F9FCF7D9
:1057C000C9FB70BD250000202400002094010020AA
:1057D00020000020B801002010B50446204600F04B
:1057E0000FF80346E01C00F00BF843EAC00083B258
:1057F000A01D00F005F843EA801083B2184610BDE2
:10580000014691F90020002A01DD00201EE091F9F7
:105810000020002A01DA042018E091F90120002A72
:1058200001DD012012E091F90120002A01DA0520B2
:105830000CE091F90220002A01DD022006E091F936
:105840000220002A01DA062000E007207047FDF759
:1058500061FC01E0FCF786FBFCE7000070B5044644
:10586000002624F00104184890F8240008B1002014
:1058700070BD1548807A10B94FF0FF30F8E7124834
:10588000057C807A2040104908740846007CA042BC
:1058900002D04FF0FF3600E0002614B90A48007D20
:1058A00018B1012001F066F902E0002001F062F970
:1058B0003CB100F099FC20B1034805744FF0FF3073
:1058C000D6E73046D4E700001C01002070B500F098
:1058D0002BF904460CB1FCF767FD782001F030F895
:1058E00008B1022070BD7820FFF7B8FF08B103208F
:1058F000F8E7C82000F0D6FF08B10420F2E70E2137
:105900001648FAF795FC032014490870FEF742FF89
:1059100008B10520E6E71248FFF75EFF0546FFF7EE
:1059200093F908B10620DDE740F273100B49C880F7
:10593000C888FEF753FC08B10720D3E7C820FFF75B
:10594000B3F808B10820CDE7012000F0A7FE012040
:105950000249487001F0C0F80020C3E7A40300200A
:105960005101002001461148407A30B1012807D08A
:10597000022808D003280CD108E0022008700BE0B0
:105980000420087008E00820087005E01020087066
:1059900002E04FF0FF30704700BF0448C07C18B1F0
:1059A00008784006000E08700020F4E71C01002073
:1059B00001461348407A30B1012808D002280AD0A5
:1059C000032810D10BE04FF4804008800EE041F630
:1059D0009C7008800AE04FF48050088006E04FF485
:1059E0000060088002E04FF0FF30704700BF0448BD
:1059F000C07C10B10888401008800020F5E7000046
:105A00001C01002001460248007C087000207047FD
:105A10001C01002001460F48007A30B1012807D050
:105A2000022809D003280FD10AE0FA2008800EE0EE
:105A30004FF4FA7008800AE04FF47A70088006E0AC
:105A40004FF4FA60088002E00020088000BF00BF29
:105A5000002070471C01002001461248007A30B136
:105A6000012809D002280CD0032814D10EE09FEDA4
:105A70000E0A81ED000A11E09FED0C0A81ED000A8B
:105A80000CE09FED0B0A81ED000A07E09FED090A8B
:105A900081ED000A02E04FF0FF30704700BF0020A8
:105AA000FBE700001C0100200000034300008342CC
:105AB000333303423333834101461248C07A082806
:105AC00017D2DFE800F01704070A0D101318BC20E6
:105AD000088013E06220088010E02A2008800DE092
