:020000040800F2
:100000007804002001010008090100080B01000824
:100010000D0100080F010008110100080000000098
:1000200000000000000000000000000013010008B4
:10003000150100080000000017010008FD16000867
:100040001B0100081B0100081B0100081B01000820
:100050001B0100081B0100081B010008E50A00083D
:100060001B0100081B0100081B0100089108000883
:100070001B0100081B0100081B0100081B010008F0
:100080001B0100081B0100081B0100081B010008E0
:100090001B0100081B0100081B0100081B010008D0
:1000A0001B0100081B0100081B0100081B010008C0
:1000B0001B0100081B0100081B0100081B010008B0
:1000C0001B0100081B0100081B0100081B010008A0
:1000D0001B010008811900081B0100081B01000812
:1000E000650900081B0100081B010008DFF80CD09F
:1000F00000F0FAF900480047311E0008780400209B
:100100000648804706480047FEE7FEE7FEE7FEE7B1
:10011000FEE7FEE7FEE7FEE7FEE7FEE7451700081D
:10012000ED0000082DE9FE4F804681EA0300C00F74
:100130000C46009021F0004123F00045B8EB02008E
:10014000A94105D24046214690461C460B46024630
:1001500023F00040104347D0270DC7F30A00C3F334
:100160000A510290401A019040286BDAC3F3130041
:1001700040F4801B0098924620B10023D2EB030A82
:1001800063EB0B0B01985946C0F14002504600F05A
:100190001DF906460D4650465946019A00F035F9BC
:1001A00010EB08006141002487EA115284EAE773EA
:1001B0001A4340D0009A62B3019A012A4FEA0752CB
:1001C00015DC001B61EB02014FF0004202EA07520E
:1001D000CDE90042001C41F5801132462B4600F06B
:1001E00035F903B0BDE8F08F40462146F9E7001B22
:1001F00061EB0201001C41F5801300185B412018DF
:10020000A2F5001747EB030140EAD570B6196D411E
:1002100011E06D084FEA360645EAC0754FEA07520D
:10022000001B61EB0201001C41F5801149084FEAF7
:1002300030000019514132462B4603B0BDE8F04F63
:1002400000F0F5B80098012240000023D0EB020234
:1002500063EBE073009821464FEAE074B8EB0000CE
:1002600061EB0401E9E783F000435BE781F00041C3
:1002700058E72DE9F04D81EA030404F0004B21F02A
:10028000004514464FF0000A23F0004150EA0502F1
:1002900020D054EA01021DD0C5F30A570246C5F327
:1002A0001303C1F31300C1F30A5640F4801543F45D
:1002B0008013A7EB0608101BD64608F2FD3873EB37
:1002C000050002D308F1010801E092185B41B8F182
:1002D000000F03DA00200146BDE8F08D00204FF446
:1002E0008011064684460EE0171B73EB050705D305
:1002F000121B63EB050306434CEA010C49084FEA65
:10030000300092185B4150EA0107EDD152EA030038
:1003100012D082EA040083EA0501084305D0101BCD
:10032000AB4106D20122002306E000224FF0004339
:1003300002E06FF0010253101AEB06004CEB08517B
:1003400010EB0A0041EB0B01BDE8F04D00F06FB877
:100350000EB540F2334102910021CDE900110A4669
:100360000B4600F073F803B000BDC1F30A5210B59C
:10037000C1F3130140F2FF3341F480119A4201DAD4
:10038000002010BD40F233439A42A2F2334203DC14
:10039000524200F02AF810BD904010BD30B5041E46
:1003A00071F1000404DB4FF00044404264EB0101B2
:1003B000141E73F1000405DB1C464FF0004352424B
:1003C00063EB0403994208BF904230BD202A04DB4E
:1003D000203A00FA02F1002070479140C2F1200358
:1003E00020FA03F3194390407047202A04DB203A97
:1003F00021FA02F00021704721FA02F3D040C2F145
:1004000020029140084319467047202A06DBCB178B
:10041000203A41FA02F043EAE07306E041FA02F3BF
:10042000D040C2F12002914008431946704710B5F0
:10043000141E73F1000408DA401C41F10001921807
:100440005B411A4301D120F0010010BD2DE9F04DB0
:1004500092469B4611B1B1FA81F202E0B0FA80F205
:1004600020329046FFF7B2FF04460F4640EA0A00EA
:1004700041EA0B0153465A46084313D0114653EA4A
:10048000010019D0C8F140025046FFF7AEFF054603
:100490000E46504659464246FFF798FF084305D09E
:1004A000012004E020463946BDE8F08D00200543D8
:1004B00046EAE0762C4337430A986305E40AA0EB4A
:1004C00008000022FD0A44EA47540A3002D5002001
:1004D0000146E9E7010510196941DDE90845001900
:1004E0006941BDE8F04DA2E7064C074D06E0E06823
:1004F00040F0010394E8070098471034AC42F6D36B
:10050000FFF7F8FD701E0008901E000821B18268F8
:1005100042F00102826003E0826822F00102826000
:10052000704721B1826842F48072826003E0826881
:1005300022F480728260704700B591B001210846B4
:1005400000F084FE04200890002007900F904A4895
:1005500006904FF480600C9080200A9020200D902F
:100560004648059080150B90002009904FF480506C
:100570000E9005A9424800F0D6F901220221404818
:1005800000F0C8F90B20012181404209920002F1DC
:10059000E022C2F8001100BF0121394800F098F9AB
:1005A00001214FF4017000F071FE0F20ADF8400002
:1005B00000208DF8430010A9324800F05FFB0020B6
:1005C000009001208DF8040000208DF805004FF404
:1005D000202002900020039004208DF8100069462E
:1005E00026484C3800F066F8012124484C38FFF7C3
:1005F0008DFF012121484C38FFF793FF4FF4404015
:1006000000F018FE0623012200211C484C3800F09F
:1006100079F806230222012118484C3800F072F8BC
:1006200006230322022115484C3800F06BF80623FC
:100630000422032111484C3800F064F80F484C386C
:1006400000F0BCF800BF0D484C3800F028F8002836
:10065000F9D10A484C3800F0B6F800BF07484C38CA
:1006600000F01DF80028F9D1012104484C3800F0B1
:100670000BF811B000BD0000080000204C24014020
:10068000080002400008014021B1826842F4801253
:10069000826003E0826822F4801282607047014623
:1006A00000208A6802F004020AB1012000E0002064
:1006B0007047000030B502460020002350680F4C00
:1006C00020400D790C6844EA05242043506090686E
:1006D0000B4C2040D1E902542C434D7944EA4504A7
:1006E00020439060D06A20F470000C7C641EE4B259
:1006F000234340EA0350D06230BD0000FFFEF0FF0C
:10070000FDF7F1FFF0B504460D4600200021092D4C
:1007100011DDE068A5F10A0606EB4607072606FA92
:1007200007F18843A5F10A0606EB460603FA06F12F
:100730000843E0600CE0206905EB4507072606FA50
:1007400007F1884305EB450603FA06F108432061EB
:10075000072A0FDA606B561E06EB86071F2606FA7D
:1007600007F18843561E06EB860605FA06F1084394
:10077000606322E00D2A0FDA206BD61F06EB860796
:100780001F2606FA07F18843D61F06EB860605FAF0
:1007900006F10843206310E0E06AA2F10D0606EBC3
:1007A00086071F2606FA07F18843A2F10D0606EB1D
:1007B000860605FA06F10843E062F0BD816841F063
:1007C000080181607047816841F0040181607047D1
:1007D0000EB50121092000F059FD4FF47040ADF82D
:1007E000080028208DF80B0002A9284800F046FADE
:1007F0004FF48050009001208DF8060000208DF805
:10080000040008208DF80500684600F0CDF94FF48B
:1008100000500090684600F0C7F94FF48040009007
:10082000684600F0C1F94FF400400090684600F0BF
:10083000BBF90C21012000F001FA0D21012000F08C
:10084000FDF90E21012000F0F9F90F21012000F03F
:10085000F5F94FF4805000F08DF94FF4005000F09E
:1008600089F94FF4804000F085F94FF4004000F022
:1008700081F9282000F01F020121914042099200D5
:1008800002F1E022C2F8001100BF0EBD000C0140D1
:1008900010B5022000F028F8012808D100F0F4FB80
:1008A0000C21034801F03CFA022000F003F810BDCF
:1008B0006500002000F0805111B10349086001E09B
:1008C00002494860704700000404024000000240F2
:1008D00021B1026842F00102026004E002684FF6B2
:1008E000FE731A400260704701460020002201F0AA
:1008F000805313B1054B1A6801E0054B1A6802EAF0
:1009000001030BB1012000E0002070470004024009
:10091000000002401AB103680B43036002E0036861
:100920008B430360704710B50022026847F6F073EE
:100930009A430C6A8B6823430C6923434C69234315
:100940008C692343CC6923434C6A23438C6A234339
:100950001A430260CB6843600B6883604B68C360D6
:1009600010BD000010B54FF4805000F009F90128C7
:100970002AD15848006800F4805000B3142001F0D8
:1009800005FA5448006800F48050C0B100BF5148D7
:10099000006800F480500028F9D14F48408864284E
:1009A00000DB10BD4D48007880F001004B49087015
:1009B000082000F069FB0C21494801F0B1F94FF41F
:1009C000805000F0D7F882E04FF4005000F0D8F8E3
:1009D000012825D13F48006800F40050D8B1142008
:1009E00001F0D4F93B48006800F4005098B100BF12
:1009F0003848006800F400500028F9D137480078E2
:100A000080F0020035490870082000F03DFB0C2101
:100A1000334801F085F94FF4005000F0ABF856E090
:100A20004FF4804000F0ACF8012825D12948006837
:100A300000F48040D8B1142001F0A8F925480068DE
:100A400000F4804098B100BF2248006800F4804064
:100A50000028F9D12148007880F004001F4908706F
:100A6000082000F011FB0C211D4801F059F94FF44A
:100A7000804000F07FF82AE04FF4004000F080F85A
:100A8000012824D11348006800F40040D8B1142094
:100A900001F07CF90F48006800F4004098B100BFF5
:100AA0000C48006800F400400028F9D10B48007899
:100AB00080F0080009490870082000F0E5FA0C21D0
:100AC000074801F02DF94FF4004000F053F800BF43
:100AD00067E70000080C014008000020100000201B
:100AE0006500002010B51F48006840F480701D4963
:100AF0000860072000F02AFD1B49087008460078AE
:100B000000F0200080B100F03BFC1848007800F0B5
:100B1000010020B14FF4807000F064F91DE04FF443
:100B2000807000F069F918E00F48007800F040008C
:100B300018B10F4800F0E6F90FE00B48007800F01C
:100B4000100050B14FF4807000F042F900F018FC32
:100B500005480178272000F03DFD022000F00AF84A
:100B600010BD0000140801401C00002010000020EF
:100B70005A00002001490860704700001404014039
:100B8000014600200022074B1B6803EA0102054BC7
:100B900014331B680B4013B10AB1012000E00020A0
:100BA0007047000000040140002123498279002A97
:100BB0003AD00A46126803689A430B461A600A1D27
:100BC000126803689A430B1D1A60027911440A687F
:100BD00003681A430A60184A0832126803689A4385
:100BE000154B08331A601A1D126803689A43124B9A
:100BF0000C331A604279102A0ED11A1F126803684A
:100C00001A430D4B08331A601A1D126803681A4301
:100C1000094B0C331A600DE00749427911440A6808
:100C200003681A430A6005E0027911440A68036800
:100C30009A430A60704700000004014030B500226A
:100C40008B071C0F0F2303FA04F20B4B8C1053F885
:100C500024309343084C8D1044F8253023468C10E3
:100C600053F824308C07240F00FA04F42343024C79
:100C70008D1044F8253030BD080001402DE9F041C9
:100C8000024600250026002000230024002791F8BA
:100C900003C00CF00F0591F803C00CF0100CBCF170
:100CA000000F03D091F802C04CEA050591F800C08E
:100CB000BCF1000F31D0146800202BE04FF0010C84
:100CC0000CFA00F3B1F800C00CEA03069E4220D1F2
:100CD00083004FF00F0C0CFA03F7BC4305FA03FC3A
:100CE0004CEA040491F803C0BCF1280F06D14FF080
:100CF000010C0CFA00FCC2F814C00AE091F803C021
:100D0000BCF1480F05D14FF0010C0CFA00FCC2F801
:100D100010C0401C0828D1D31460B1F800C0BCF149
:100D2000FF0F34DD546800202EE000F1080C4FF076
:100D3000010808FA0CF3B1F800C00CEA03069E4261
:100D400021D183004FF00F0C0CFA03F7BC4305FAD6
:100D500003FC4CEA040491F803C0BCF1280F05D150
:100D600000F1080C08FA0CF8C2F8148091F803C0DE
:100D7000BCF1480F07D100F1080C4FF0010808FA48
:100D80000CF8C2F81080401C0828CED35460BDE88F
:100D9000F0814161704701617047000008B5012191
:100DA000082000F073FA4FF44070ADF800001020F6
:100DB0008DF8030003208DF8020069460348FFF711
:100DC0005DFF4FF4407000F003F808BD000C0140D7
:100DD00010B5044621460248FFF7DDFF10BD0000B4
:100DE000000C014010B5044621460248FFF7D1FF30
:100DF00010BD0000000C0140024909684140014A51
:100E0000116070470C0C01400EB500F0E3FA0121AF
:100E10000D2000F03BFA4FF48070ADF80800102070
:100E20008DF80B0003208DF80A0002A93148FFF766
:100E300025FF0220ADF8080048208DF80B0002A91C
:100E40002D48FFF71BFF0220009001208DF80600BF
:100E500000208DF804000C208DF805006846FFF78F
:100E6000A3FE01210846FFF7E9FE0720012181408A
:100E70004209920002F1E022C2F8001100BF1D48B1
:100E80001430006840F480701A491431086003215E
:100E9000232000F09FFB05221849302000F072FB50
:100EA000052217492A2000F06DFB1A21242000F0AA
:100EB00091FB0121212000F08DFB0121222000F077
:100EC00089FB0721262000F085FB1E21252000F04C
:100ED00081FB0B21312000F07DFB0F21202000F051
:100EE00079FB04481030006840F4807001491031EB
:100EF00008600EBD00080140000C014012000020F7
:100F00001700002010B504460C48006840F48070BB
:100F10000A4908600B222146612000F0EFFA0848D8
:100F20000178272000F056FB0448001F006840F4B9
:100F300080700249091F086010BD000014080140BC
:100F40001C00002010B500221146052000F025F8F5
:100F5000044621464FF0FF3000F082F800220121C4
:100F6000052000F01AF804462146072000F078F822
:100F700001221146052000F010F8044621460B20FE
:100F800000F06EF800220121052000F006F804466A
:100F90002146282000F064F810BDF0B503460C4649
:100FA00003F00701C1F10700042801D9042001E082
:100FB000C1F107000646081D072801D2002000E005
:100FC000C81E05460120B040401E2040A840012711
:100FD000AF407F1E17403843F0BD000070B50021C0
:100FE00000230F22C47804B3154C246804F4E06491
:100FF000C4F5E064210AC1F10403CA40447804FA4C
:1010000003F184781440214309010E4C0678A15560
:10101000047804F01F050124AC4005786D11AD0083
:1010200005F1E025C5F8004109E0047804F01F054A
:101030000124AC40044D0678761145F8264070BD79
:101040000CED00E000E400E080E100E00249014333
:10105000024A1160704700000000FA050CED00E044
:1010600010B5002807DA0A07140E054A00F00F032E
:101070001B1FD45403E00A07130E024A135410BD79
:1010800018ED00E000E400E02DE9FF5F83466149D0
:101090004888FFF75DF9064600225F4BFFF7E9F845
:1010A00000225E4BCDE90001FFF73CF804460D46F7
:1010B0005B480088FFF74CF9804622462B46FFF735
:1010C000D2F80022574BCDE90201FFF767F905D8A6
:1010D0005348008832385249088012E04D49488808
:1010E000FFF736F9804600224B4BFFF7C2F8064661
:1010F00000224A4BFFF716F80446FFF736F9484935
:10110000088044488088B0F5C86F0ADC4148808870
:1011100000EB40004FF4A07190FBF1F03D49888056
:1011200014E03C48808840F6340188420BDB3948A3
:10113000808800EB40004FF4AF7190FBF1F0C01ECF
:101140003449888002E00F20324988803148C088C5
:10115000B0F5E16F07DC2F48C088782190FBF1F0F3
:101160002C49C88014E02B48C08840F6FC01884216
:101170000BDB2848C08800EB40004FF4AA7190FBBD
:10118000F1F0401F2349C88002E00F202149C880A8
:1011900025480078C82803DB00202349087004E0B4
:1011A00021480078401C20490870204880F800B091
:1011B0001F4800781D494870164800788870154807
:1011C0004078C87016480078087115484078487112
:1011D0001048007988710F484079C8710D488079AE
:1011E00008720C48C07948720F48007888724FF036
:1011F000000A002006E00D49095C514401F0FF0A95
:10120000411CC8B20B28F6DB084880F80BA0BDE8EB
:10121000FF9F00000800002000805440000059405B
:1012200020000020000049401E0000206500002032
:101230001000002001460020034A506820F440407E
:1012400008435060704700000010024029B1064A70
:1012500052690243044B5A6104E0034A52698243D3
:10126000014B5A61704700000010024029B1064A44
:10127000D2690243044BDA6104E0034AD269824333
:10128000014BDA61704700000010024029B1064AA4
:1012900092690243044B9A6104E0034A92698243D3
:1012A000014B9A61704700000010024030B50021E8
:1012B0000022002400232D4D6D6805F00C0121B1A2
:1012C000042905D0082923D105E0294D056022E035
:1012D000274D05601FE0254D6D6805F47012234D04
:1012E0006D6805F48034022505EB92421CB9214D4E
:1012F000554305600BE01D4D6D6805F400351DB1CB
:101300001C4D5543056002E0194D5543056002E050
:10131000174D056000BF00BF144D6D6805F0F0016A
:101320000909154D6B5C0568DD4045600F4D6D6822
:1013300005F4E061090A104D6B5C4568DD4085608D
:101340000A4D6D6805F46051C90A0B4D6B5C456828
:10135000DD40C560054D6D6805F44041890B074DC2
:101360006B5CC568B5FBF3F5056130BD001002404C
:1013700000127A0000093D00230000203300002005
:1013800010B50D48006840F480700B4908600F21CB
:10139000202000F01FF97E21272000F01BF90648CD
:1013A000001F006840F480700349091F0860C820CE
:1013B00000F00EFD10BD00001408014021B10288AC
:1013C00042F04002028004E002884FF6BF731A40E8
:1013D0000280704700B587B001210420FFF756FF57
:1013E00003208DF80600E020ADF8040018208DF8E9
:1013F000070001A91B48FFF741FC1020ADF80400CD
:101400008DF8070003208DF8060001A91548FFF7A5
:1014100035FC01210803FFF739FF0020ADF8080073
:101420004FF48270ADF80A000020ADF80C00ADF862
:101430000E00ADF810004FF40070ADF81200082057
:10144000ADF814000020ADF816000720ADF8180024
:1014500002A9054800F018F801210348FFF7AEFF84
:1014600007B000BD000801400030014002460020E6
:1014700013890B400BB1012000E0002070470146AA
:10148000888970478181704710B50022028802F474
:1014900041520B884C8823438C882343CC882343B8
:1014A0000C8923434C8923438C892343CC892343D0
:1014B0001A430280838B4FF2FF74234083830B8A8D
:1014C000038210BD10B5044600BF02210A48FFF791
:1014D000CDFF0028F9D021460748FFF7D3FF00BF12
:1014E00001210548FFF7C2FF0028F9D00248FFF7A5
:1014F000C6FFC0B210BD00000030014070B5064606
:101500000C4615460F48006840F010000D49086071
:101510003046FFF7D7FF0C49087006E00020FFF7C0
:10152000D1FF2070641C681EC5B2002DF6D105489D
:10153000001F006840F010000249091F08600248BF
:10154000007870BD140801401100002070B50446F9
:101550000B48006840F01000094908602046FFF77A
:10156000B1FF0020FFF7AEFF05460548001F0068E9
:1015700040F010000249091F0860284670BD0000B5
:101580001408014070B506460C4615460F48006821
:1015900040F010000D4908603046FFF793FF0C49FA
:1015A000087005E02078FFF78DFF641C681EC5B247
:1015B000002DF7D10548001F006840F010000349D6
:1015C000091F08600248007870BD0000140801403F
:1015D0001100002070B505460C460C48006840F02C
:1015E00010000A4908602846FFF76CFF0849087098
:1015F0002046FFF767FF0548001F006840F0100015
:101600000249091F08600248007870BD14080140B3
:101610001100002010B500F001F810BD0CB500203D
:10162000019000903348006840F4803031490860F0
:1016300000BF3048006800F4003000900198401C62
:101640000190009818B90198B0F5A06FF1D1294820
:10165000006800F4003010B10120009001E000208B
:1016600000900098012843D12348006840F0100002
:10167000214908600846006820F003000860084619
:10168000006840F0020008601A4840681949486044
:101690000846406848600846406840F480604860FA
:1016A0000846406820F47C1048600846406840F4D2
:1016B000E81048600846006840F08070086000BF8D
:1016C0000C48006800F000700028F9D00948406814
:1016D00020F00300074948600846406840F00200D7
:1016E000486000BF0348406800F00C000828F9D1AA
:1016F0000CBD0000001002400020024004480068B9
:1017000020B103480068401E01490860704700008E
:1017100000000020094800680949B0FBF1F0401EB4
:101720004FF0E021486100208861062008610846EA
:10173000006920F0010008617047000038000020B7
:1017400040420F0010B51348006840F001001149F5
:10175000086008464068104908400E49486008463D
:1017600000680E4908400B4908600846006820F4EC
:10177000802008600846406820F4FE0048604FF46E
:101780001F008860FFF746FF4FF0006004490860C3
:1017900010BD0000001002400000FFF8FFFFF6FE41
:1017A00008ED00E021B1028842F08002028004E0EE
:1017B00002884FF67F731A400280704721B1028879
:1017C00042F00102028004E002884FF6FE731A40E4
:1017D0000280704770B5002200230024058C4EF66D
:1017E000FF7635400584038C8488828B48F6FF752C
:1017F0002A404FF6FF452A400D884FF6FF7606EA4D
:1018000005252A434DF6FF752B400D8906EA05355F
:101810002B434D8806EA05352B430B4DA84202D0D9
:101820000A4DA84208D14BF6FF752C408D894FF622
:10183000FF7606EA85152C4384808283CD88A0F844
:101840004050038470BD0000002C01400034014072
:101850000A460021818B4FF2FF7319404FF6FF7348
:1018600003EA0223194381837047000030B587B033
:101870004EF660256C1001210420FFF7F7FC0020D4
:10188000ADF816007720ADF810000020ADF812007A
:10189000ADF8145004A9104800F020F86020ADF80D
:1018A00000000020ADF808000120ADF80200ADF8FE
:1018B000064069460848FFF78DFF01210648FFF7FB
:1018C00071FF08210448FFF7C3FF01210248FFF719
:1018D00075FF07B030BD00000008004000220288FC
:1018E0001D4B98420ED01D4B98420BD0B0F1804F4B
:1018F00008D01B4B984205D01A4B984202D01A4B85
:10190000984204D14FF68F731A404B881A43174BF5
:10191000984207D0164B984204D04FF6FF431A4026
:10192000CB881A4302808B8883850B8803850A4BFA
:1019300098420BD0094B984208D00E4B984205D0E4
:101940000D4B984202D00D4B984201D10B7A038681
:101950000123838270470000002C014000340140C5
:101960000004004000080040000C0040001000404F
:101970000014004000400140004401400048014084
:1019800010B540F22551284800F0EFF8002849D062
:10199000254800F0A5F9C4B2AA2C0ED10120234994
:1019A0000870002022490870224801780078401C05
:1019B000204A10702048445410BDF12C17D11D4806
:1019C0000078092813D1002018490870012018490F
:1019D0000870184801780078401C164A10701648A4
:1019E000445400F087F9002012490870E4E71148D8
:1019F0000078092804DD00200C4908700D490870A2
:101A00000A480078012807D10A4801780078401C6C
:101A1000084A10700848445440F22551024800F02A
:101A200021F800BF00BFC7E70038014004000020D4
:101A300006000020050000205000002010B50446DC
:101A40004021074800F084F82146054800F04DF990
:101A500000BF4021024800F07BF80028F9D010BDFB
:101A60000038014010B50022002340F66A14A1425C
:101A700000D100BF0A1201249440A3B2DC430480C9
:101A800010BD21B1828942F40052828104E0828932
:101A90004DF6FF731A4082817047000000B587B091
:101AA00001210420FFF7F2FB01218803FFF7EEFB81
:101AB0004FF40070ADF8180018208DF81B000320BB
:101AC0008DF81A0006A92048FFF7D8F84FF4806077
:101AD000ADF8180004208DF81B0006A91A48FFF77E
:101AE000CDF84FF4E13002900020ADF814000C2046
:101AF000ADF812000020ADF81000ADF80E00ADF802
:101B00000C0002A9114800F07FF8012240F2255193
:101B10000E4800F054F801210C48FFF7B2FF4FF4D3
:101B2000A060FFF793FA25208DF8040000208DF8BF
:101B3000050001208DF806008DF8070001A8FFF7C9
:101B40004DFA07B000BD0000000801400038014018
:101B500002460020B1F5007F00D100BF13880B4082
:101B60000BB1012000E00020704770B50246002450
:101B700000230025002040F66A16B14200D100BFC4
:101B8000C1F3421501F01F03012606FA03F3012DEC
:101B900002D19689334006E0022D02D1168A3340E5
:101BA00001E0968A33400C12012606FA04F41688E6
:101BB000344013B10CB1012000E0002070BDF0B53D
:101BC0000346002400260025002040F66A17B9428B
:101BD00000D100BF1846C1F3421401F01F060127CF
:101BE00007FA06F5012C01D10C3004E0022C01D1DA
:101BF000103000E014301AB107682F43076002E08C
:101C00000768AF430760F0BD2DE9F04786B0054691
:101C10000E460024A24600BFA1460027B08900B1AD
:101C200000BF2F462C8A4CF6FF700440F088044316
:101C30002C82AC894EF6F3100440B08831890843F9
:101C4000718908430443AC81AC8A4FF6FF400440DD
:101C5000B0890443AC8201A8FFF728FB1F488742E4
:101C600002D1DDF810A001E0DDF80CA0A88900F495
:101C7000004040B10AEBCA0000EB0A10316849008D
:101C8000B0FBF1F807E00AEBCA0000EB0A1031687C
:101C90008900B0FBF1F86420B8FBF0F004012009E2
:101CA000642101FB1089A88900F4004040B1322072
:101CB00000EBC900B0FBF1F000F00700044308E0BE
:101CC000322000EB09106421B0FBF1F000F00F00AE
:101CD00004432C8106B0BDE8F087000000380140C5
:101CE00001468888C0F308007047C1F3080282806B
:101CF0007047000010B50848407808490870084649
:101D0000007820B14FF48070FFF76CF803E04FF4D7
:101D10008070FFF771F810BD5000002022000020F5
:101D200070B505460E46002400BF04E0285DFFF7AD
:101D300085FE601CC4B2B442F8DB70BD014A0249A2
:101D400000F013B80D1E00084C00002002E008C887
:101D5000121F08C1002AFAD170477047002001E025
:101D600001C1121F002AFBD170472DE9F041164630
:101D70000F460446002503E03946B047641C6D1C3D
:101D800020780028F8D12846BDE8F08100B97047D6
:101D90004FF47A7141430D4A116000214FF0E02267
:101DA00091611146096941F00101116100BF0749C4
:101DB00009680029FBD14FF0E021096921F00101F8
:101DC0004FF0E022116100BFE1E7000000000020B9
:101DD00000B970470C49086000214FF0E022916182
:101DE0001146096941F00101116100BF0649096806
:101DF0000029FBD14FF0E021096921F001014FF0EA
:101E0000E022116100BFE4E70000002070B5044645
:101E10000D46E1B20548FFF768FF00BF8021034887
:101E2000FFF796FE0028F9D0204670BD003801402B
:101E3000FFF734FE09A0FFF781FFFFF76BFCFFF708
:101E400081F8FEF7C5FCFEF7A9FFFEF7DDFFFFF7FF
:101E50000DFDFEF771FB00BFFEE7000075736172B8
:101E6000742069732072656164790D0A00000000B6
:101E7000901E000800000020500000004C1D0008CB
:101E8000E01E000850000020280400005C1D00082F
:101E90000000000000000000000000000000000042
:101EA0000000344310100134431010010000000002
:101EB0000000000000000001020304010203040608
:101EC000070809020406080000A24A0400000000F6
:101ED00000000000010203040607080900000000DA
:04000005080000ED02
:00000001FF
